{
  "contractName": "Kudos",
  "abi": [
    {
      "inputs": [],
      "stateMutability": "nonpayable",
      "type": "constructor"
    },
    {
      "anonymous": false,
      "inputs": [
        {
          "indexed": true,
          "internalType": "address",
          "name": "account",
          "type": "address"
        },
        {
          "indexed": true,
          "internalType": "address",
          "name": "operator",
          "type": "address"
        },
        {
          "indexed": false,
          "internalType": "bool",
          "name": "approved",
          "type": "bool"
        }
      ],
      "name": "ApprovalForAll",
      "type": "event"
    },
    {
      "anonymous": false,
      "inputs": [
        {
          "indexed": true,
          "internalType": "address",
          "name": "previousOwner",
          "type": "address"
        },
        {
          "indexed": true,
          "internalType": "address",
          "name": "newOwner",
          "type": "address"
        }
      ],
      "name": "OwnershipTransferred",
      "type": "event"
    },
    {
      "anonymous": false,
      "inputs": [
        {
          "indexed": false,
          "internalType": "address",
          "name": "from",
          "type": "address"
        },
        {
          "indexed": false,
          "internalType": "address",
          "name": "receiver",
          "type": "address"
        },
        {
          "indexed": false,
          "internalType": "string",
          "name": "message",
          "type": "string"
        },
        {
          "indexed": false,
          "internalType": "uint256",
          "name": "timestamp",
          "type": "uint256"
        }
      ],
      "name": "SendMessage",
      "type": "event"
    },
    {
      "anonymous": false,
      "inputs": [
        {
          "indexed": true,
          "internalType": "address",
          "name": "operator",
          "type": "address"
        },
        {
          "indexed": true,
          "internalType": "address",
          "name": "from",
          "type": "address"
        },
        {
          "indexed": true,
          "internalType": "address",
          "name": "to",
          "type": "address"
        },
        {
          "indexed": false,
          "internalType": "uint256[]",
          "name": "ids",
          "type": "uint256[]"
        },
        {
          "indexed": false,
          "internalType": "uint256[]",
          "name": "values",
          "type": "uint256[]"
        }
      ],
      "name": "TransferBatch",
      "type": "event"
    },
    {
      "anonymous": false,
      "inputs": [
        {
          "indexed": true,
          "internalType": "address",
          "name": "operator",
          "type": "address"
        },
        {
          "indexed": true,
          "internalType": "address",
          "name": "from",
          "type": "address"
        },
        {
          "indexed": true,
          "internalType": "address",
          "name": "to",
          "type": "address"
        },
        {
          "indexed": false,
          "internalType": "uint256",
          "name": "id",
          "type": "uint256"
        },
        {
          "indexed": false,
          "internalType": "uint256",
          "name": "value",
          "type": "uint256"
        }
      ],
      "name": "TransferSingle",
      "type": "event"
    },
    {
      "anonymous": false,
      "inputs": [
        {
          "indexed": false,
          "internalType": "string",
          "name": "value",
          "type": "string"
        },
        {
          "indexed": true,
          "internalType": "uint256",
          "name": "id",
          "type": "uint256"
        }
      ],
      "name": "URI",
      "type": "event"
    },
    {
      "inputs": [
        {
          "internalType": "address",
          "name": "account",
          "type": "address"
        },
        {
          "internalType": "uint256",
          "name": "id",
          "type": "uint256"
        }
      ],
      "name": "balanceOf",
      "outputs": [
        {
          "internalType": "uint256",
          "name": "",
          "type": "uint256"
        }
      ],
      "stateMutability": "view",
      "type": "function",
      "constant": true
    },
    {
      "inputs": [
        {
          "internalType": "address[]",
          "name": "accounts",
          "type": "address[]"
        },
        {
          "internalType": "uint256[]",
          "name": "ids",
          "type": "uint256[]"
        }
      ],
      "name": "balanceOfBatch",
      "outputs": [
        {
          "internalType": "uint256[]",
          "name": "",
          "type": "uint256[]"
        }
      ],
      "stateMutability": "view",
      "type": "function",
      "constant": true
    },
    {
      "inputs": [
        {
          "internalType": "uint256",
          "name": "id",
          "type": "uint256"
        }
      ],
      "name": "exists",
      "outputs": [
        {
          "internalType": "bool",
          "name": "",
          "type": "bool"
        }
      ],
      "stateMutability": "view",
      "type": "function",
      "constant": true
    },
    {
      "inputs": [
        {
          "internalType": "address",
          "name": "account",
          "type": "address"
        },
        {
          "internalType": "address",
          "name": "operator",
          "type": "address"
        }
      ],
      "name": "isApprovedForAll",
      "outputs": [
        {
          "internalType": "bool",
          "name": "",
          "type": "bool"
        }
      ],
      "stateMutability": "view",
      "type": "function",
      "constant": true
    },
    {
      "inputs": [],
      "name": "name",
      "outputs": [
        {
          "internalType": "string",
          "name": "",
          "type": "string"
        }
      ],
      "stateMutability": "view",
      "type": "function",
      "constant": true
    },
    {
      "inputs": [],
      "name": "owner",
      "outputs": [
        {
          "internalType": "address",
          "name": "",
          "type": "address"
        }
      ],
      "stateMutability": "view",
      "type": "function",
      "constant": true
    },
    {
      "inputs": [],
      "name": "renounceOwnership",
      "outputs": [],
      "stateMutability": "nonpayable",
      "type": "function"
    },
    {
      "inputs": [
        {
          "internalType": "address",
          "name": "from",
          "type": "address"
        },
        {
          "internalType": "address",
          "name": "to",
          "type": "address"
        },
        {
          "internalType": "uint256[]",
          "name": "ids",
          "type": "uint256[]"
        },
        {
          "internalType": "uint256[]",
          "name": "amounts",
          "type": "uint256[]"
        },
        {
          "internalType": "bytes",
          "name": "data",
          "type": "bytes"
        }
      ],
      "name": "safeBatchTransferFrom",
      "outputs": [],
      "stateMutability": "nonpayable",
      "type": "function"
    },
    {
      "inputs": [
        {
          "internalType": "address",
          "name": "from",
          "type": "address"
        },
        {
          "internalType": "address",
          "name": "to",
          "type": "address"
        },
        {
          "internalType": "uint256",
          "name": "id",
          "type": "uint256"
        },
        {
          "internalType": "uint256",
          "name": "amount",
          "type": "uint256"
        },
        {
          "internalType": "bytes",
          "name": "data",
          "type": "bytes"
        }
      ],
      "name": "safeTransferFrom",
      "outputs": [],
      "stateMutability": "nonpayable",
      "type": "function"
    },
    {
      "inputs": [
        {
          "internalType": "address",
          "name": "operator",
          "type": "address"
        },
        {
          "internalType": "bool",
          "name": "approved",
          "type": "bool"
        }
      ],
      "name": "setApprovalForAll",
      "outputs": [],
      "stateMutability": "nonpayable",
      "type": "function"
    },
    {
      "inputs": [],
      "name": "supply",
      "outputs": [
        {
          "internalType": "uint256",
          "name": "",
          "type": "uint256"
        }
      ],
      "stateMutability": "view",
      "type": "function",
      "constant": true
    },
    {
      "inputs": [
        {
          "internalType": "bytes4",
          "name": "interfaceId",
          "type": "bytes4"
        }
      ],
      "name": "supportsInterface",
      "outputs": [
        {
          "internalType": "bool",
          "name": "",
          "type": "bool"
        }
      ],
      "stateMutability": "view",
      "type": "function",
      "constant": true
    },
    {
      "inputs": [],
      "name": "symbol",
      "outputs": [
        {
          "internalType": "string",
          "name": "",
          "type": "string"
        }
      ],
      "stateMutability": "view",
      "type": "function",
      "constant": true
    },
    {
      "inputs": [
        {
          "internalType": "uint256",
          "name": "id",
          "type": "uint256"
        }
      ],
      "name": "totalSupply",
      "outputs": [
        {
          "internalType": "uint256",
          "name": "",
          "type": "uint256"
        }
      ],
      "stateMutability": "view",
      "type": "function",
      "constant": true
    },
    {
      "inputs": [
        {
          "internalType": "address",
          "name": "newOwner",
          "type": "address"
        }
      ],
      "name": "transferOwnership",
      "outputs": [],
      "stateMutability": "nonpayable",
      "type": "function"
    },
    {
      "inputs": [
        {
          "internalType": "uint256",
          "name": "tokenId",
          "type": "uint256"
        }
      ],
      "name": "uri",
      "outputs": [
        {
          "internalType": "string",
          "name": "",
          "type": "string"
        }
      ],
      "stateMutability": "view",
      "type": "function",
      "constant": true
    },
    {
      "inputs": [
        {
          "internalType": "address payable",
          "name": "receiver",
          "type": "address"
        },
        {
          "internalType": "uint256",
          "name": "tokenId",
          "type": "uint256"
        },
        {
          "internalType": "string",
          "name": "message",
          "type": "string"
        }
      ],
      "name": "sendKudo",
      "outputs": [],
      "stateMutability": "nonpayable",
      "type": "function"
    },
    {
      "inputs": [],
      "name": "getAllkudos",
      "outputs": [
        {
          "components": [
            {
              "internalType": "address",
              "name": "sender",
              "type": "address"
            },
            {
              "internalType": "address",
              "name": "receiver",
              "type": "address"
            },
            {
              "internalType": "string",
              "name": "message",
              "type": "string"
            },
            {
              "internalType": "uint256",
              "name": "timestamp",
              "type": "uint256"
            }
          ],
          "internalType": "struct Kudos.KudosStruct[]",
          "name": "",
          "type": "tuple[]"
        }
      ],
      "stateMutability": "view",
      "type": "function",
      "constant": true
    },
    {
      "inputs": [
        {
          "internalType": "address",
          "name": "account",
          "type": "address"
        },
        {
          "internalType": "uint256",
          "name": "id",
          "type": "uint256"
        },
        {
          "internalType": "uint256",
          "name": "amount",
          "type": "uint256"
        }
      ],
      "name": "burn",
      "outputs": [],
      "stateMutability": "nonpayable",
      "type": "function"
    }
  ],
  "bytecode": "0x610100604052604360808181529062002d1c60a03980516200002a9160059160209091019062000774565b5060408051808201909152600580825264173539b7b760d91b6020909201918252620000599160069162000774565b5060408051808201909152600f8082526e4d6f7265205468616e204b75646f7360881b6020909201918252620000929160079162000774565b50604080518082019091526003808252624d544b60e81b6020909201918252620000bf9160089162000774565b506003600955348015620000d257600080fd5b5060058054620000e2906200081a565b80601f016020809104026020016040519081016040528092919081815260200182805462000110906200081a565b8015620001615780601f10620001355761010080835404028352916020019162000161565b820191906000526020600020905b8154815290600101906020018083116200014357829003601f168201915b50505050506200017781620001f760201b60201c565b50620001833362000210565b620001a733600180604051806020016040528060008152506200026260201b60201c565b620001cc3360026001604051806020016040528060008152506200026260201b60201c565b620001f13360036001604051806020016040528060008152506200026260201b60201c565b62000a7f565b80516200020c90600290602084019062000774565b5050565b600480546001600160a01b038381166001600160a01b0319831681179093556040519116919082907f8be0079c531659141344cd1fd0a4f28419497f9722a3daafe3b4186f6b6457e090600090a35050565b6001600160a01b038416620002c85760405162461bcd60e51b815260206004820152602160248201527f455243313135353a206d696e7420746f20746865207a65726f206164647265736044820152607360f81b60648201526084015b60405180910390fd5b336000620002d68562000395565b90506000620002e58562000395565b9050620002f883600089858589620003e3565b6000868152602081815260408083206001600160a01b038b168452909152812080548792906200032a9084906200086c565b909155505060408051878152602081018790526001600160a01b03808a1692600092918716917fc3d58168c5ae7397731d063d5bbf3d657854427343f4c083240f7aacaa2d0f62910160405180910390a46200038c8360008989898962000599565b50505050505050565b60408051600180825281830190925260609160009190602080830190803683370190505090508281600081518110620003d257620003d262000887565b602090810291909101015292915050565b620003fe8686868686866200059160201b62000b081760201c565b6001600160a01b038516620004925760005b835181101562000490578281815181106200042f576200042f62000887565b60200260200101516003600086848151811062000450576200045062000887565b6020026020010151815260200190815260200160002060008282546200047791906200086c565b90915550620004889050816200089d565b905062000410565b505b6001600160a01b038416620005915760005b83518110156200038c576000848281518110620004c557620004c562000887565b602002602001015190506000848381518110620004e657620004e662000887565b60200260200101519050600060036000848152602001908152602001600020549050818110156200056b5760405162461bcd60e51b815260206004820152602860248201527f455243313135353a206275726e20616d6f756e74206578636565647320746f74604482015267616c537570706c7960c01b6064820152608401620002bf565b6000928352600360205260409092209103905562000589816200089d565b9050620004a4565b505050505050565b620005b8846001600160a01b03166200076560201b62000b101760201c565b15620005915760405163f23a6e6160e01b81526001600160a01b0385169063f23a6e6190620005f4908990899088908890889060040162000909565b6020604051808303816000875af192505050801562000632575060408051601f3d908101601f191682019092526200062f9181019062000950565b60015b620006f2576200064162000983565b806308c379a00362000681575062000658620009db565b8062000665575062000683565b8060405162461bcd60e51b8152600401620002bf919062000a6a565b505b60405162461bcd60e51b815260206004820152603460248201527f455243313135353a207472616e7366657220746f206e6f6e204552433131353560448201527f526563656976657220696d706c656d656e7465720000000000000000000000006064820152608401620002bf565b6001600160e01b0319811663f23a6e6160e01b146200038c5760405162461bcd60e51b815260206004820152602860248201527f455243313135353a204552433131353552656365697665722072656a656374656044820152676420746f6b656e7360c01b6064820152608401620002bf565b6001600160a01b03163b151590565b82805462000782906200081a565b90600052602060002090601f016020900481019282620007a65760008555620007f1565b82601f10620007c157805160ff1916838001178555620007f1565b82800160010185558215620007f1579182015b82811115620007f1578251825591602001919060010190620007d4565b50620007ff92915062000803565b5090565b5b80821115620007ff576000815560010162000804565b600181811c908216806200082f57607f821691505b6020821081036200085057634e487b7160e01b600052602260045260246000fd5b50919050565b634e487b7160e01b600052601160045260246000fd5b6000821982111562000882576200088262000856565b500190565b634e487b7160e01b600052603260045260246000fd5b600060018201620008b257620008b262000856565b5060010190565b6000815180845260005b81811015620008e157602081850181015186830182015201620008c3565b81811115620008f4576000602083870101525b50601f01601f19169290920160200192915050565b6001600160a01b03868116825285166020820152604081018490526060810183905260a0608082018190526000906200094590830184620008b9565b979650505050505050565b6000602082840312156200096357600080fd5b81516001600160e01b0319811681146200097c57600080fd5b9392505050565b600060033d11156200099d5760046000803e5060005160e01c5b90565b601f8201601f191681016001600160401b0381118282101715620009d457634e487b7160e01b600052604160045260246000fd5b6040525050565b600060443d1015620009ea5790565b6040516003193d81016004833e81513d6001600160401b03808311602484018310171562000a1a57505050505090565b828501915081518181111562000a335750505050505090565b843d870101602082850101111562000a4e5750505050505090565b62000a5f60208286010187620009a0565b509095945050505050565b6020815260006200097c6020830184620008b9565b61228d8062000a8f6000396000f3fe608060405234801561001057600080fd5b50600436106101205760003560e01c80638d36c675116100ad578063bd85b03911610071578063bd85b0391461025c578063e985e9c51461027c578063f242432a146102b8578063f2fde38b146102cb578063f5298aca146102de57600080fd5b80638d36c675146101fe5780638da5cb5b1461021357806395d89b411461022e578063a22cb46514610236578063a9704bf41461024957600080fd5b80630e89341c116100f45780630e89341c1461018c5780632eb2c2d61461019f5780634e1273f4146101b45780634f558e79146101d4578063715018a6146101f657600080fd5b8062fdd58e1461012557806301ffc9a71461014b578063047fc9aa1461016e57806306fdde0314610177575b600080fd5b6101386101333660046117b0565b6102f1565b6040519081526020015b60405180910390f35b61015e6101593660046117f2565b610388565b6040519015158152602001610142565b61013860095481565b61017f6103da565b6040516101429190611872565b61017f61019a366004611885565b610468565b6101b26101ad3660046119f4565b61049f565b005b6101c76101c2366004611aa2565b610536565b6040516101429190611baa565b61015e6101e2366004611885565b600090815260036020526040902054151590565b6101b2610660565b6102066106c6565b6040516101429190611bbd565b6004546040516001600160a01b039091168152602001610142565b61017f6107e4565b6101b2610244366004611c57565b6107f1565b6101b2610257366004611c95565b610800565b61013861026a366004611885565b60009081526003602052604090205490565b61015e61028a366004611d02565b6001600160a01b03918216600090815260016020908152604080832093909416825291909152205460ff1690565b6101b26102c6366004611d30565b61097c565b6101b26102d9366004611d99565b610a03565b6101b26102ec366004611db6565b610ace565b60006001600160a01b0383166103625760405162461bcd60e51b815260206004820152602b60248201527f455243313135353a2062616c616e636520717565727920666f7220746865207a60448201526a65726f206164647265737360a81b60648201526084015b60405180910390fd5b506000908152602081815260408083206001600160a01b03949094168352929052205490565b60006001600160e01b03198216636cdb3d1360e11b14806103b957506001600160e01b031982166303a24d0760e21b145b806103d457506301ffc9a760e01b6001600160e01b03198316145b92915050565b600780546103e790611deb565b80601f016020809104026020016040519081016040528092919081815260200182805461041390611deb565b80156104605780601f1061043557610100808354040283529160200191610460565b820191906000526020600020905b81548152906001019060200180831161044357829003601f168201915b505050505081565b6060600561047583610b1f565b600660405160200161048993929190611ebe565b6040516020818303038152906040529050919050565b6001600160a01b0385163314806104bb57506104bb853361028a565b6105225760405162461bcd60e51b815260206004820152603260248201527f455243313135353a207472616e736665722063616c6c6572206973206e6f74206044820152711bdddb995c881b9bdc88185c1c1c9bdd995960721b6064820152608401610359565b61052f8585858585610c28565b5050505050565b6060815183511461059b5760405162461bcd60e51b815260206004820152602960248201527f455243313135353a206163636f756e747320616e6420696473206c656e677468604482015268040dad2e6dac2e8c6d60bb1b6064820152608401610359565b6000835167ffffffffffffffff8111156105b7576105b761189e565b6040519080825280602002602001820160405280156105e0578160200160208202803683370190505b50905060005b84518110156106585761062b85828151811061060457610604611ef1565b602002602001015185838151811061061e5761061e611ef1565b60200260200101516102f1565b82828151811061063d5761063d611ef1565b602090810291909101015261065181611f1d565b90506105e6565b509392505050565b6004546001600160a01b031633146106ba5760405162461bcd60e51b815260206004820181905260248201527f4f776e61626c653a2063616c6c6572206973206e6f7420746865206f776e65726044820152606401610359565b6106c46000610e0b565b565b6060600b805480602002602001604051908101604052809291908181526020016000905b828210156107db576000848152602090819020604080516080810182526004860290920180546001600160a01b039081168452600182015416938301939093526002830180549293929184019161074090611deb565b80601f016020809104026020016040519081016040528092919081815260200182805461076c90611deb565b80156107b95780601f1061078e576101008083540402835291602001916107b9565b820191906000526020600020905b81548152906001019060200180831161079c57829003601f168201915b50505050508152602001600382015481525050815260200190600101906106ea565b50505050905090565b600880546103e790611deb565b6107fc338383610e5d565b5050565b604080516080810182523381526001600160a01b038581166020808401918252938301858152426060850152600b8054600181018255600091909152845160049091027f0175b7a638427703f0dbe7bb9bbf987a2551717b34e79f33b5b1008d1fa01db9810180549286166001600160a01b031993841617815593517f0175b7a638427703f0dbe7bb9bbf987a2551717b34e79f33b5b1008d1fa01dba8201805491909616921691909117909355518051939491936108e6937f0175b7a638427703f0dbe7bb9bbf987a2551717b34e79f33b5b1008d1fa01dbb01929190910190611702565b50606091909101516003909101556001600160a01b038316330361090957600080fd5b6109258383600160405180602001604052806000815250610f3d565b6009805490600061093583611f1d565b91905055507faecd1b4f3f7b504b3f70641f6da501cff5a770fd60726496ac1bf6f8644bd7273384834260405161096f9493929190611f36565b60405180910390a1505050565b6001600160a01b0385163314806109985750610998853361028a565b6109f65760405162461bcd60e51b815260206004820152602960248201527f455243313135353a2063616c6c6572206973206e6f74206f776e6572206e6f7260448201526808185c1c1c9bdd995960ba1b6064820152608401610359565b61052f8585858585611060565b6004546001600160a01b03163314610a5d5760405162461bcd60e51b815260206004820181905260248201527f4f776e61626c653a2063616c6c6572206973206e6f7420746865206f776e65726044820152606401610359565b6001600160a01b038116610ac25760405162461bcd60e51b815260206004820152602660248201527f4f776e61626c653a206e6577206f776e657220697320746865207a65726f206160448201526564647265737360d01b6064820152608401610359565b610acb81610e0b565b50565b336001600160a01b03841614610ae357600080fd5b610aee838383611198565b60098054906000610afe83611f73565b9190505550505050565b505050505050565b6001600160a01b03163b151590565b606081600003610b465750506040805180820190915260018152600360fc1b602082015290565b8160005b8115610b705780610b5a81611f1d565b9150610b699050600a83611fa0565b9150610b4a565b60008167ffffffffffffffff811115610b8b57610b8b61189e565b6040519080825280601f01601f191660200182016040528015610bb5576020820181803683370190505b5090505b8415610c2057610bca600183611fb4565b9150610bd7600a86611fcb565b610be2906030611fdf565b60f81b818381518110610bf757610bf7611ef1565b60200101906001600160f81b031916908160001a905350610c19600a86611fa0565b9450610bb9565b949350505050565b8151835114610c8a5760405162461bcd60e51b815260206004820152602860248201527f455243313135353a2069647320616e6420616d6f756e7473206c656e677468206044820152670dad2e6dac2e8c6d60c31b6064820152608401610359565b6001600160a01b038416610cb05760405162461bcd60e51b815260040161035990611ff7565b33610cbf818787878787611328565b60005b8451811015610da5576000858281518110610cdf57610cdf611ef1565b602002602001015190506000858381518110610cfd57610cfd611ef1565b602090810291909101810151600084815280835260408082206001600160a01b038e168352909352919091205490915081811015610d4d5760405162461bcd60e51b81526004016103599061203c565b6000838152602081815260408083206001600160a01b038e8116855292528083208585039055908b16825281208054849290610d8a908490611fdf565b9250508190555050505080610d9e90611f1d565b9050610cc2565b50846001600160a01b0316866001600160a01b0316826001600160a01b03167f4a39dc06d4c0dbc64b70af90fd698a233a518aa5d07e595d983b8c0526c8f7fb8787604051610df5929190612086565b60405180910390a4610b088187878787876114a1565b600480546001600160a01b038381166001600160a01b0319831681179093556040519116919082907f8be0079c531659141344cd1fd0a4f28419497f9722a3daafe3b4186f6b6457e090600090a35050565b816001600160a01b0316836001600160a01b031603610ed05760405162461bcd60e51b815260206004820152602960248201527f455243313135353a2073657474696e6720617070726f76616c20737461747573604482015268103337b91039b2b63360b91b6064820152608401610359565b6001600160a01b03838116600081815260016020908152604080832094871680845294825291829020805460ff191686151590811790915591519182527f17307eab39ab6107e8899845ad3d59bd9653f200f220920489ca2b5937696c31910160405180910390a3505050565b6001600160a01b038416610f9d5760405162461bcd60e51b815260206004820152602160248201527f455243313135353a206d696e7420746f20746865207a65726f206164647265736044820152607360f81b6064820152608401610359565b336000610fa9856115fc565b90506000610fb6856115fc565b9050610fc783600089858589611328565b6000868152602081815260408083206001600160a01b038b16845290915281208054879290610ff7908490611fdf565b909155505060408051878152602081018790526001600160a01b03808a1692600092918716917fc3d58168c5ae7397731d063d5bbf3d657854427343f4c083240f7aacaa2d0f62910160405180910390a461105783600089898989611647565b50505050505050565b6001600160a01b0384166110865760405162461bcd60e51b815260040161035990611ff7565b336000611092856115fc565b9050600061109f856115fc565b90506110af838989858589611328565b6000868152602081815260408083206001600160a01b038c168452909152902054858110156110f05760405162461bcd60e51b81526004016103599061203c565b6000878152602081815260408083206001600160a01b038d8116855292528083208985039055908a1682528120805488929061112d908490611fdf565b909155505060408051888152602081018890526001600160a01b03808b16928c821692918816917fc3d58168c5ae7397731d063d5bbf3d657854427343f4c083240f7aacaa2d0f62910160405180910390a461118d848a8a8a8a8a611647565b505050505050505050565b6001600160a01b0383166111fa5760405162461bcd60e51b815260206004820152602360248201527f455243313135353a206275726e2066726f6d20746865207a65726f206164647260448201526265737360e81b6064820152608401610359565b336000611206846115fc565b90506000611213846115fc565b905061123383876000858560405180602001604052806000815250611328565b6000858152602081815260408083206001600160a01b038a168452909152902054848110156112b05760405162461bcd60e51b8152602060048201526024808201527f455243313135353a206275726e20616d6f756e7420657863656564732062616c604482015263616e636560e01b6064820152608401610359565b6000868152602081815260408083206001600160a01b038b81168086529184528285208a8703905582518b81529384018a90529092908816917fc3d58168c5ae7397731d063d5bbf3d657854427343f4c083240f7aacaa2d0f62910160405180910390a4604080516020810190915260009052611057565b6001600160a01b0385166113af5760005b83518110156113ad5782818151811061135457611354611ef1565b60200260200101516003600086848151811061137257611372611ef1565b6020026020010151815260200190815260200160002060008282546113979190611fdf565b909155506113a6905081611f1d565b9050611339565b505b6001600160a01b038416610b085760005b83518110156110575760008482815181106113dd576113dd611ef1565b6020026020010151905060008483815181106113fb576113fb611ef1565b602002602001015190506000600360008481526020019081526020016000205490508181101561147e5760405162461bcd60e51b815260206004820152602860248201527f455243313135353a206275726e20616d6f756e74206578636565647320746f74604482015267616c537570706c7960c01b6064820152608401610359565b6000928352600360205260409092209103905561149a81611f1d565b90506113c0565b6001600160a01b0384163b15610b085760405163bc197c8160e01b81526001600160a01b0385169063bc197c81906114e590899089908890889088906004016120b4565b6020604051808303816000875af1925050508015611520575060408051601f3d908101601f1916820190925261151d91810190612112565b60015b6115cc5761152c61212f565b806308c379a003611565575061154061214b565b8061154b5750611567565b8060405162461bcd60e51b81526004016103599190611872565b505b60405162461bcd60e51b815260206004820152603460248201527f455243313135353a207472616e7366657220746f206e6f6e20455243313135356044820152732932b1b2b4bb32b91034b6b83632b6b2b73a32b960611b6064820152608401610359565b6001600160e01b0319811663bc197c8160e01b146110575760405162461bcd60e51b8152600401610359906121d5565b6040805160018082528183019092526060916000919060208083019080368337019050509050828160008151811061163657611636611ef1565b602090810291909101015292915050565b6001600160a01b0384163b15610b085760405163f23a6e6160e01b81526001600160a01b0385169063f23a6e619061168b908990899088908890889060040161221d565b6020604051808303816000875af19250505080156116c6575060408051601f3d908101601f191682019092526116c391810190612112565b60015b6116d25761152c61212f565b6001600160e01b0319811663f23a6e6160e01b146110575760405162461bcd60e51b8152600401610359906121d5565b82805461170e90611deb565b90600052602060002090601f0160209004810192826117305760008555611776565b82601f1061174957805160ff1916838001178555611776565b82800160010185558215611776579182015b8281111561177657825182559160200191906001019061175b565b50611782929150611786565b5090565b5b808211156117825760008155600101611787565b6001600160a01b0381168114610acb57600080fd5b600080604083850312156117c357600080fd5b82356117ce8161179b565b946020939093013593505050565b6001600160e01b031981168114610acb57600080fd5b60006020828403121561180457600080fd5b813561180f816117dc565b9392505050565b60005b83811015611831578181015183820152602001611819565b83811115611840576000848401525b50505050565b6000815180845261185e816020860160208601611816565b601f01601f19169290920160200192915050565b60208152600061180f6020830184611846565b60006020828403121561189757600080fd5b5035919050565b634e487b7160e01b600052604160045260246000fd5b601f8201601f1916810167ffffffffffffffff811182821017156118da576118da61189e565b6040525050565b600067ffffffffffffffff8211156118fb576118fb61189e565b5060051b60200190565b600082601f83011261191657600080fd5b81356020611923826118e1565b60405161193082826118b4565b83815260059390931b850182019282810191508684111561195057600080fd5b8286015b8481101561196b5780358352918301918301611954565b509695505050505050565b600067ffffffffffffffff8311156119905761199061189e565b6040516119a7601f8501601f1916602001826118b4565b8091508381528484840111156119bc57600080fd5b83836020830137600060208583010152509392505050565b600082601f8301126119e557600080fd5b61180f83833560208501611976565b600080600080600060a08688031215611a0c57600080fd5b8535611a178161179b565b94506020860135611a278161179b565b9350604086013567ffffffffffffffff80821115611a4457600080fd5b611a5089838a01611905565b94506060880135915080821115611a6657600080fd5b611a7289838a01611905565b93506080880135915080821115611a8857600080fd5b50611a95888289016119d4565b9150509295509295909350565b60008060408385031215611ab557600080fd5b823567ffffffffffffffff80821115611acd57600080fd5b818501915085601f830112611ae157600080fd5b81356020611aee826118e1565b604051611afb82826118b4565b83815260059390931b8501820192828101915089841115611b1b57600080fd5b948201945b83861015611b42578535611b338161179b565b82529482019490820190611b20565b96505086013592505080821115611b5857600080fd5b50611b6585828601611905565b9150509250929050565b600081518084526020808501945080840160005b83811015611b9f57815187529582019590820190600101611b83565b509495945050505050565b60208152600061180f6020830184611b6f565b60006020808301818452808551808352604092508286019150828160051b87010184880160005b83811015611c4957888303603f19018552815180516001600160a01b03908116855288820151168885015286810151608088860181905290611c2882870182611846565b60609384015196909301959095525094870194925090860190600101611be4565b509098975050505050505050565b60008060408385031215611c6a57600080fd5b8235611c758161179b565b915060208301358015158114611c8a57600080fd5b809150509250929050565b600080600060608486031215611caa57600080fd5b8335611cb58161179b565b925060208401359150604084013567ffffffffffffffff811115611cd857600080fd5b8401601f81018613611ce957600080fd5b611cf886823560208401611976565b9150509250925092565b60008060408385031215611d1557600080fd5b8235611d208161179b565b91506020830135611c8a8161179b565b600080600080600060a08688031215611d4857600080fd5b8535611d538161179b565b94506020860135611d638161179b565b93506040860135925060608601359150608086013567ffffffffffffffff811115611d8d57600080fd5b611a95888289016119d4565b600060208284031215611dab57600080fd5b813561180f8161179b565b600080600060608486031215611dcb57600080fd5b8335611dd68161179b565b95602085013595506040909401359392505050565b600181811c90821680611dff57607f821691505b602082108103611e1f57634e487b7160e01b600052602260045260246000fd5b50919050565b8054600090600181811c9080831680611e3f57607f831692505b60208084108203611e6057634e487b7160e01b600052602260045260246000fd5b818015611e745760018114611e8557611eb2565b60ff19861689528489019650611eb2565b60008881526020902060005b86811015611eaa5781548b820152908501908301611e91565b505084890196505b50505050505092915050565b6000611eca8286611e25565b8451611eda818360208901611816565b611ee681830186611e25565b979650505050505050565b634e487b7160e01b600052603260045260246000fd5b634e487b7160e01b600052601160045260246000fd5b600060018201611f2f57611f2f611f07565b5060010190565b6001600160a01b03858116825284166020820152608060408201819052600090611f6290830185611846565b905082606083015295945050505050565b600081611f8257611f82611f07565b506000190190565b634e487b7160e01b600052601260045260246000fd5b600082611faf57611faf611f8a565b500490565b600082821015611fc657611fc6611f07565b500390565b600082611fda57611fda611f8a565b500690565b60008219821115611ff257611ff2611f07565b500190565b60208082526025908201527f455243313135353a207472616e7366657220746f20746865207a65726f206164604082015264647265737360d81b606082015260800190565b6020808252602a908201527f455243313135353a20696e73756666696369656e742062616c616e636520666f60408201526939103a3930b739b332b960b11b606082015260800190565b6040815260006120996040830185611b6f565b82810360208401526120ab8185611b6f565b95945050505050565b6001600160a01b0386811682528516602082015260a0604082018190526000906120e090830186611b6f565b82810360608401526120f28186611b6f565b905082810360808401526121068185611846565b98975050505050505050565b60006020828403121561212457600080fd5b815161180f816117dc565b600060033d11156121485760046000803e5060005160e01c5b90565b600060443d10156121595790565b6040516003193d81016004833e81513d67ffffffffffffffff816024840111818411171561218957505050505090565b82850191508151818111156121a15750505050505090565b843d87010160208285010111156121bb5750505050505090565b6121ca602082860101876118b4565b509095945050505050565b60208082526028908201527f455243313135353a204552433131353552656365697665722072656a656374656040820152676420746f6b656e7360c01b606082015260800190565b6001600160a01b03868116825285166020820152604081018490526060810183905260a060808201819052600090611ee69083018461184656fea26469706673582212208423e1a657b5072a94f77a4ec0786ea8c79d01b442b914488872a31c514218bf64736f6c634300080e0033697066733a2f2f62616679626569686e75353471726b7577326e62336f366d667a6775747164667769327a6262746a65757865707a6835736b7570756e64787967612f",
  "immutableReferences": {},
  "source": "// SPDX-License-Identifier: MIT\n\npragma solidity ^0.8.14;\n\n// Import ERC1155 token contract from Openzeppelin\n\nimport \"../node_modules/@openzeppelin/contracts/token/ERC1155/ERC1155.sol\";\nimport \"../node_modules/@openzeppelin/contracts/access/Ownable.sol\";\nimport \"../node_modules/@openzeppelin/contracts/utils/Strings.sol\";\nimport \"../node_modules/@openzeppelin/contracts/token/ERC1155/extensions/ERC1155Supply.sol\";\n\ncontract Kudos is ERC1155Supply, Ownable {\n    string private _baseUri = \"ipfs://bafybeihnu54qrkuw2nb3o6mfzgutqdfwi2zbbtjeuxepzh5skupundxyga/\";\n    string private _baseExtension = \".json\";\n    string public name = \"More Than Kudos\";\n    string public symbol = \"MTK\";\n    uint256 public supply = 3; // Initial supply\n    mapping(uint256 => string) private _uris;\n\n    event SendMessage(address from, address receiver, string message, uint256 timestamp);\n  \n    struct KudosStruct {\n        address sender;\n        address receiver;\n        string message;\n        uint256 timestamp;\n    }\n\n    KudosStruct[] kudos;\n\n    constructor() ERC1155(_baseUri) {\n        _mint(msg.sender, 1, 1, \"\");\n        _mint(msg.sender, 2, 1, \"\");\n        _mint(msg.sender, 3, 1, \"\");\n    }\n\n    function uri(uint256 tokenId) override public view returns (string memory) {\n        return(string(abi.encodePacked(_baseUri, Strings.toString(tokenId),_baseExtension))\n        );\n    }\n\n    function sendKudo(address payable receiver, uint256 tokenId, string memory message ) public {\n        kudos.push(KudosStruct(msg.sender, receiver, message, block.timestamp));\n        require(msg.sender != receiver);\n        _mint(receiver, tokenId, 1, \"\");\n        supply++;\n\n        emit SendMessage(msg.sender, receiver, message, block.timestamp);\n    }\n\n    function getAllkudos() public view returns (KudosStruct[] memory) {\n        return kudos;\n    }\n\n    function burn(address account, uint256 id, uint256 amount) public {\n        require(msg.sender == account);\n        _burn(account, id, amount);\n        supply--;\n    } \n}",
  "sourcePath": "/Users/thomas.viana/Developer/kudos-web3/smart-contract/contracts/Kudos.sol",
  "compiler": {
    "name": "solc",
    "version": "0.8.14+commit.80d49f37.Emscripten.clang"
  },
  "schemaVersion": "3.4.7",
  "updatedAt": "2022-06-18T15:50:47.027Z",
  "networkType": "ethereum",
  "devdoc": {
    "kind": "dev",
    "methods": {
      "balanceOf(address,uint256)": {
        "details": "See {IERC1155-balanceOf}. Requirements: - `account` cannot be the zero address."
      },
      "balanceOfBatch(address[],uint256[])": {
        "details": "See {IERC1155-balanceOfBatch}. Requirements: - `accounts` and `ids` must have the same length."
      },
      "exists(uint256)": {
        "details": "Indicates whether any token exist with a given id, or not."
      },
      "isApprovedForAll(address,address)": {
        "details": "See {IERC1155-isApprovedForAll}."
      },
      "owner()": {
        "details": "Returns the address of the current owner."
      },
      "renounceOwnership()": {
        "details": "Leaves the contract without owner. It will not be possible to call `onlyOwner` functions anymore. Can only be called by the current owner. NOTE: Renouncing ownership will leave the contract without an owner, thereby removing any functionality that is only available to the owner."
      },
      "safeBatchTransferFrom(address,address,uint256[],uint256[],bytes)": {
        "details": "See {IERC1155-safeBatchTransferFrom}."
      },
      "safeTransferFrom(address,address,uint256,uint256,bytes)": {
        "details": "See {IERC1155-safeTransferFrom}."
      },
      "setApprovalForAll(address,bool)": {
        "details": "See {IERC1155-setApprovalForAll}."
      },
      "supportsInterface(bytes4)": {
        "details": "See {IERC165-supportsInterface}."
      },
      "totalSupply(uint256)": {
        "details": "Total amount of tokens in with a given id."
      },
      "transferOwnership(address)": {
        "details": "Transfers ownership of the contract to a new account (`newOwner`). Can only be called by the current owner."
      }
    },
    "version": 1
  },
  "userdoc": {
    "kind": "user",
    "methods": {},
    "version": 1
  }
}