{
  "contractName": "Kudos",
  "abi": [
    {
      "inputs": [],
      "stateMutability": "nonpayable",
      "type": "constructor"
    },
    {
      "anonymous": false,
      "inputs": [
        {
          "indexed": true,
          "internalType": "address",
          "name": "account",
          "type": "address"
        },
        {
          "indexed": true,
          "internalType": "address",
          "name": "operator",
          "type": "address"
        },
        {
          "indexed": false,
          "internalType": "bool",
          "name": "approved",
          "type": "bool"
        }
      ],
      "name": "ApprovalForAll",
      "type": "event"
    },
    {
      "anonymous": false,
      "inputs": [
        {
          "indexed": true,
          "internalType": "address",
          "name": "previousOwner",
          "type": "address"
        },
        {
          "indexed": true,
          "internalType": "address",
          "name": "newOwner",
          "type": "address"
        }
      ],
      "name": "OwnershipTransferred",
      "type": "event"
    },
    {
      "anonymous": false,
      "inputs": [
        {
          "indexed": false,
          "internalType": "address",
          "name": "from",
          "type": "address"
        },
        {
          "indexed": false,
          "internalType": "address",
          "name": "receiver",
          "type": "address"
        },
        {
          "indexed": false,
          "internalType": "string",
          "name": "message",
          "type": "string"
        },
        {
          "indexed": false,
          "internalType": "uint256",
          "name": "timestamp",
          "type": "uint256"
        }
      ],
      "name": "SendMessage",
      "type": "event"
    },
    {
      "anonymous": false,
      "inputs": [
        {
          "indexed": true,
          "internalType": "address",
          "name": "operator",
          "type": "address"
        },
        {
          "indexed": true,
          "internalType": "address",
          "name": "from",
          "type": "address"
        },
        {
          "indexed": true,
          "internalType": "address",
          "name": "to",
          "type": "address"
        },
        {
          "indexed": false,
          "internalType": "uint256[]",
          "name": "ids",
          "type": "uint256[]"
        },
        {
          "indexed": false,
          "internalType": "uint256[]",
          "name": "values",
          "type": "uint256[]"
        }
      ],
      "name": "TransferBatch",
      "type": "event"
    },
    {
      "anonymous": false,
      "inputs": [
        {
          "indexed": true,
          "internalType": "address",
          "name": "operator",
          "type": "address"
        },
        {
          "indexed": true,
          "internalType": "address",
          "name": "from",
          "type": "address"
        },
        {
          "indexed": true,
          "internalType": "address",
          "name": "to",
          "type": "address"
        },
        {
          "indexed": false,
          "internalType": "uint256",
          "name": "id",
          "type": "uint256"
        },
        {
          "indexed": false,
          "internalType": "uint256",
          "name": "value",
          "type": "uint256"
        }
      ],
      "name": "TransferSingle",
      "type": "event"
    },
    {
      "anonymous": false,
      "inputs": [
        {
          "indexed": false,
          "internalType": "string",
          "name": "value",
          "type": "string"
        },
        {
          "indexed": true,
          "internalType": "uint256",
          "name": "id",
          "type": "uint256"
        }
      ],
      "name": "URI",
      "type": "event"
    },
    {
      "inputs": [
        {
          "internalType": "address",
          "name": "account",
          "type": "address"
        },
        {
          "internalType": "uint256",
          "name": "id",
          "type": "uint256"
        }
      ],
      "name": "balanceOf",
      "outputs": [
        {
          "internalType": "uint256",
          "name": "",
          "type": "uint256"
        }
      ],
      "stateMutability": "view",
      "type": "function",
      "constant": true
    },
    {
      "inputs": [
        {
          "internalType": "address[]",
          "name": "accounts",
          "type": "address[]"
        },
        {
          "internalType": "uint256[]",
          "name": "ids",
          "type": "uint256[]"
        }
      ],
      "name": "balanceOfBatch",
      "outputs": [
        {
          "internalType": "uint256[]",
          "name": "",
          "type": "uint256[]"
        }
      ],
      "stateMutability": "view",
      "type": "function",
      "constant": true
    },
    {
      "inputs": [
        {
          "internalType": "uint256",
          "name": "id",
          "type": "uint256"
        }
      ],
      "name": "exists",
      "outputs": [
        {
          "internalType": "bool",
          "name": "",
          "type": "bool"
        }
      ],
      "stateMutability": "view",
      "type": "function",
      "constant": true
    },
    {
      "inputs": [
        {
          "internalType": "address",
          "name": "account",
          "type": "address"
        },
        {
          "internalType": "address",
          "name": "operator",
          "type": "address"
        }
      ],
      "name": "isApprovedForAll",
      "outputs": [
        {
          "internalType": "bool",
          "name": "",
          "type": "bool"
        }
      ],
      "stateMutability": "view",
      "type": "function",
      "constant": true
    },
    {
      "inputs": [],
      "name": "name",
      "outputs": [
        {
          "internalType": "string",
          "name": "",
          "type": "string"
        }
      ],
      "stateMutability": "view",
      "type": "function",
      "constant": true
    },
    {
      "inputs": [],
      "name": "owner",
      "outputs": [
        {
          "internalType": "address",
          "name": "",
          "type": "address"
        }
      ],
      "stateMutability": "view",
      "type": "function",
      "constant": true
    },
    {
      "inputs": [],
      "name": "renounceOwnership",
      "outputs": [],
      "stateMutability": "nonpayable",
      "type": "function"
    },
    {
      "inputs": [
        {
          "internalType": "address",
          "name": "from",
          "type": "address"
        },
        {
          "internalType": "address",
          "name": "to",
          "type": "address"
        },
        {
          "internalType": "uint256[]",
          "name": "ids",
          "type": "uint256[]"
        },
        {
          "internalType": "uint256[]",
          "name": "amounts",
          "type": "uint256[]"
        },
        {
          "internalType": "bytes",
          "name": "data",
          "type": "bytes"
        }
      ],
      "name": "safeBatchTransferFrom",
      "outputs": [],
      "stateMutability": "nonpayable",
      "type": "function"
    },
    {
      "inputs": [
        {
          "internalType": "address",
          "name": "from",
          "type": "address"
        },
        {
          "internalType": "address",
          "name": "to",
          "type": "address"
        },
        {
          "internalType": "uint256",
          "name": "id",
          "type": "uint256"
        },
        {
          "internalType": "uint256",
          "name": "amount",
          "type": "uint256"
        },
        {
          "internalType": "bytes",
          "name": "data",
          "type": "bytes"
        }
      ],
      "name": "safeTransferFrom",
      "outputs": [],
      "stateMutability": "nonpayable",
      "type": "function"
    },
    {
      "inputs": [
        {
          "internalType": "address",
          "name": "operator",
          "type": "address"
        },
        {
          "internalType": "bool",
          "name": "approved",
          "type": "bool"
        }
      ],
      "name": "setApprovalForAll",
      "outputs": [],
      "stateMutability": "nonpayable",
      "type": "function"
    },
    {
      "inputs": [],
      "name": "supply",
      "outputs": [
        {
          "internalType": "uint256",
          "name": "",
          "type": "uint256"
        }
      ],
      "stateMutability": "view",
      "type": "function",
      "constant": true
    },
    {
      "inputs": [
        {
          "internalType": "bytes4",
          "name": "interfaceId",
          "type": "bytes4"
        }
      ],
      "name": "supportsInterface",
      "outputs": [
        {
          "internalType": "bool",
          "name": "",
          "type": "bool"
        }
      ],
      "stateMutability": "view",
      "type": "function",
      "constant": true
    },
    {
      "inputs": [],
      "name": "symbol",
      "outputs": [
        {
          "internalType": "string",
          "name": "",
          "type": "string"
        }
      ],
      "stateMutability": "view",
      "type": "function",
      "constant": true
    },
    {
      "inputs": [
        {
          "internalType": "uint256",
          "name": "id",
          "type": "uint256"
        }
      ],
      "name": "totalSupply",
      "outputs": [
        {
          "internalType": "uint256",
          "name": "",
          "type": "uint256"
        }
      ],
      "stateMutability": "view",
      "type": "function",
      "constant": true
    },
    {
      "inputs": [
        {
          "internalType": "address",
          "name": "newOwner",
          "type": "address"
        }
      ],
      "name": "transferOwnership",
      "outputs": [],
      "stateMutability": "nonpayable",
      "type": "function"
    },
    {
      "inputs": [
        {
          "internalType": "uint256",
          "name": "tokenId",
          "type": "uint256"
        }
      ],
      "name": "uri",
      "outputs": [
        {
          "internalType": "string",
          "name": "",
          "type": "string"
        }
      ],
      "stateMutability": "view",
      "type": "function",
      "constant": true
    },
    {
      "inputs": [
        {
          "internalType": "address payable",
          "name": "receiver",
          "type": "address"
        },
        {
          "internalType": "uint256",
          "name": "tokenId",
          "type": "uint256"
        },
        {
          "internalType": "string",
          "name": "message",
          "type": "string"
        }
      ],
      "name": "sendKudos",
      "outputs": [],
      "stateMutability": "nonpayable",
      "type": "function"
    },
    {
      "inputs": [],
      "name": "getAllKudos",
      "outputs": [
        {
          "components": [
            {
              "internalType": "address",
              "name": "sender",
              "type": "address"
            },
            {
              "internalType": "address",
              "name": "receiver",
              "type": "address"
            },
            {
              "internalType": "string",
              "name": "message",
              "type": "string"
            },
            {
              "internalType": "uint256",
              "name": "timestamp",
              "type": "uint256"
            },
            {
              "internalType": "uint256",
              "name": "tokenId",
              "type": "uint256"
            }
          ],
          "internalType": "struct Kudos.KudosStruct[]",
          "name": "",
          "type": "tuple[]"
        }
      ],
      "stateMutability": "view",
      "type": "function",
      "constant": true
    },
    {
      "inputs": [
        {
          "internalType": "address",
          "name": "account",
          "type": "address"
        },
        {
          "internalType": "uint256",
          "name": "id",
          "type": "uint256"
        },
        {
          "internalType": "uint256",
          "name": "amount",
          "type": "uint256"
        }
      ],
      "name": "burn",
      "outputs": [],
      "stateMutability": "nonpayable",
      "type": "function"
    }
  ],
  "bytecode": "0x610100604052604360808181529062002d3f60a03980516200002a9160059160209091019062000774565b5060408051808201909152600580825264173539b7b760d91b6020909201918252620000599160069162000774565b5060408051808201909152600f8082526e4d6f7265205468616e204b75646f7360881b6020909201918252620000929160079162000774565b50604080518082019091526003808252624d544b60e81b6020909201918252620000bf9160089162000774565b506003600955348015620000d257600080fd5b5060058054620000e2906200081a565b80601f016020809104026020016040519081016040528092919081815260200182805462000110906200081a565b8015620001615780601f10620001355761010080835404028352916020019162000161565b820191906000526020600020905b8154815290600101906020018083116200014357829003601f168201915b50505050506200017781620001f760201b60201c565b50620001833362000210565b620001a733600180604051806020016040528060008152506200026260201b60201c565b620001cc3360026001604051806020016040528060008152506200026260201b60201c565b620001f13360036001604051806020016040528060008152506200026260201b60201c565b62000a7f565b80516200020c90600290602084019062000774565b5050565b600480546001600160a01b038381166001600160a01b0319831681179093556040519116919082907f8be0079c531659141344cd1fd0a4f28419497f9722a3daafe3b4186f6b6457e090600090a35050565b6001600160a01b038416620002c85760405162461bcd60e51b815260206004820152602160248201527f455243313135353a206d696e7420746f20746865207a65726f206164647265736044820152607360f81b60648201526084015b60405180910390fd5b336000620002d68562000395565b90506000620002e58562000395565b9050620002f883600089858589620003e3565b6000868152602081815260408083206001600160a01b038b168452909152812080548792906200032a9084906200086c565b909155505060408051878152602081018790526001600160a01b03808a1692600092918716917fc3d58168c5ae7397731d063d5bbf3d657854427343f4c083240f7aacaa2d0f62910160405180910390a46200038c8360008989898962000599565b50505050505050565b60408051600180825281830190925260609160009190602080830190803683370190505090508281600081518110620003d257620003d262000887565b602090810291909101015292915050565b620003fe8686868686866200059160201b62000b221760201c565b6001600160a01b038516620004925760005b835181101562000490578281815181106200042f576200042f62000887565b60200260200101516003600086848151811062000450576200045062000887565b6020026020010151815260200190815260200160002060008282546200047791906200086c565b90915550620004889050816200089d565b905062000410565b505b6001600160a01b038416620005915760005b83518110156200038c576000848281518110620004c557620004c562000887565b602002602001015190506000848381518110620004e657620004e662000887565b60200260200101519050600060036000848152602001908152602001600020549050818110156200056b5760405162461bcd60e51b815260206004820152602860248201527f455243313135353a206275726e20616d6f756e74206578636565647320746f74604482015267616c537570706c7960c01b6064820152608401620002bf565b6000928352600360205260409092209103905562000589816200089d565b9050620004a4565b505050505050565b620005b8846001600160a01b03166200076560201b62000b2a1760201c565b15620005915760405163f23a6e6160e01b81526001600160a01b0385169063f23a6e6190620005f4908990899088908890889060040162000909565b6020604051808303816000875af192505050801562000632575060408051601f3d908101601f191682019092526200062f9181019062000950565b60015b620006f2576200064162000983565b806308c379a00362000681575062000658620009db565b8062000665575062000683565b8060405162461bcd60e51b8152600401620002bf919062000a6a565b505b60405162461bcd60e51b815260206004820152603460248201527f455243313135353a207472616e7366657220746f206e6f6e204552433131353560448201527f526563656976657220696d706c656d656e7465720000000000000000000000006064820152608401620002bf565b6001600160e01b0319811663f23a6e6160e01b146200038c5760405162461bcd60e51b815260206004820152602860248201527f455243313135353a204552433131353552656365697665722072656a656374656044820152676420746f6b656e7360c01b6064820152608401620002bf565b6001600160a01b03163b151590565b82805462000782906200081a565b90600052602060002090601f016020900481019282620007a65760008555620007f1565b82601f10620007c157805160ff1916838001178555620007f1565b82800160010185558215620007f1579182015b82811115620007f1578251825591602001919060010190620007d4565b50620007ff92915062000803565b5090565b5b80821115620007ff576000815560010162000804565b600181811c908216806200082f57607f821691505b6020821081036200085057634e487b7160e01b600052602260045260246000fd5b50919050565b634e487b7160e01b600052601160045260246000fd5b6000821982111562000882576200088262000856565b500190565b634e487b7160e01b600052603260045260246000fd5b600060018201620008b257620008b262000856565b5060010190565b6000815180845260005b81811015620008e157602081850181015186830182015201620008c3565b81811115620008f4576000602083870101525b50601f01601f19169290920160200192915050565b6001600160a01b03868116825285166020820152604081018490526060810183905260a0608082018190526000906200094590830184620008b9565b979650505050505050565b6000602082840312156200096357600080fd5b81516001600160e01b0319811681146200097c57600080fd5b9392505050565b600060033d11156200099d5760046000803e5060005160e01c5b90565b601f8201601f191681016001600160401b0381118282101715620009d457634e487b7160e01b600052604160045260246000fd5b6040525050565b600060443d1015620009ea5790565b6040516003193d81016004833e81513d6001600160401b03808311602484018310171562000a1a57505050505090565b828501915081518181111562000a335750505050505090565b843d870101602082850101111562000a4e5750505050505090565b62000a5f60208286010187620009a0565b509095945050505050565b6020815260006200097c6020830184620008b9565b6122b08062000a8f6000396000f3fe608060405234801561001057600080fd5b50600436106101205760003560e01c8063715018a6116100ad578063d58989e411610071578063d58989e414610267578063e985e9c51461027c578063f242432a146102b8578063f2fde38b146102cb578063f5298aca146102de57600080fd5b8063715018a6146102095780638da5cb5b1461021157806395d89b411461022c578063a22cb46514610234578063bd85b0391461024757600080fd5b80630e89341c116100f45780630e89341c1461018c5780632eb2c2d61461019f578063302fb00a146101b45780634e1273f4146101c75780634f558e79146101e757600080fd5b8062fdd58e1461012557806301ffc9a71461014b578063047fc9aa1461016e57806306fdde0314610177575b600080fd5b6101386101333660046117ca565b6102f1565b6040519081526020015b60405180910390f35b61015e61015936600461180c565b610388565b6040519015158152602001610142565b61013860095481565b61017f6103da565b604051610142919061188c565b61017f61019a36600461189f565b610468565b6101b26101ad366004611a0e565b61049f565b005b6101b26101c2366004611abc565b610536565b6101da6101d5366004611b29565b6106c2565b6040516101429190611c31565b61015e6101f536600461189f565b600090815260036020526040902054151590565b6101b26107ec565b6004546040516001600160a01b039091168152602001610142565b61017f610852565b6101b2610242366004611c44565b61085f565b61013861025536600461189f565b60009081526003602052604090205490565b61026f61086e565b6040516101429190611c82565b61015e61028a366004611d25565b6001600160a01b03918216600090815260016020908152604080832093909416825291909152205460ff1690565b6101b26102c6366004611d53565b610996565b6101b26102d9366004611dbc565b610a1d565b6101b26102ec366004611dd9565b610ae8565b60006001600160a01b0383166103625760405162461bcd60e51b815260206004820152602b60248201527f455243313135353a2062616c616e636520717565727920666f7220746865207a60448201526a65726f206164647265737360a81b60648201526084015b60405180910390fd5b506000908152602081815260408083206001600160a01b03949094168352929052205490565b60006001600160e01b03198216636cdb3d1360e11b14806103b957506001600160e01b031982166303a24d0760e21b145b806103d457506301ffc9a760e01b6001600160e01b03198316145b92915050565b600780546103e790611e0e565b80601f016020809104026020016040519081016040528092919081815260200182805461041390611e0e565b80156104605780601f1061043557610100808354040283529160200191610460565b820191906000526020600020905b81548152906001019060200180831161044357829003601f168201915b505050505081565b6060600561047583610b39565b600660405160200161048993929190611ee1565b6040516020818303038152906040529050919050565b6001600160a01b0385163314806104bb57506104bb853361028a565b6105225760405162461bcd60e51b815260206004820152603260248201527f455243313135353a207472616e736665722063616c6c6572206973206e6f74206044820152711bdddb995c881b9bdc88185c1c1c9bdd995960721b6064820152608401610359565b61052f8585858585610c42565b5050505050565b6040805160a0810182523381526001600160a01b03858116602080840191825293830185815242606085015260808401879052600b8054600181018255600091909152845160059091027f0175b7a638427703f0dbe7bb9bbf987a2551717b34e79f33b5b1008d1fa01db9810180549286166001600160a01b031993841617815593517f0175b7a638427703f0dbe7bb9bbf987a2551717b34e79f33b5b1008d1fa01dba820180549190961692169190911790935551805193949193610623937f0175b7a638427703f0dbe7bb9bbf987a2551717b34e79f33b5b1008d1fa01dbb0192919091019061171c565b50606082015160038201556080909101516004909101556001600160a01b038316330361064f57600080fd5b61066b8383600160405180602001604052806000815250610e25565b6009805490600061067b83611f2a565b91905055507faecd1b4f3f7b504b3f70641f6da501cff5a770fd60726496ac1bf6f8644bd727338483426040516106b59493929190611f43565b60405180910390a1505050565b606081518351146107275760405162461bcd60e51b815260206004820152602960248201527f455243313135353a206163636f756e747320616e6420696473206c656e677468604482015268040dad2e6dac2e8c6d60bb1b6064820152608401610359565b6000835167ffffffffffffffff811115610743576107436118b8565b60405190808252806020026020018201604052801561076c578160200160208202803683370190505b50905060005b84518110156107e4576107b785828151811061079057610790611f80565b60200260200101518583815181106107aa576107aa611f80565b60200260200101516102f1565b8282815181106107c9576107c9611f80565b60209081029190910101526107dd81611f2a565b9050610772565b509392505050565b6004546001600160a01b031633146108465760405162461bcd60e51b815260206004820181905260248201527f4f776e61626c653a2063616c6c6572206973206e6f7420746865206f776e65726044820152606401610359565b6108506000610f48565b565b600880546103e790611e0e565b61086a338383610f9a565b5050565b6060600b805480602002602001604051908101604052809291908181526020016000905b8282101561098d5760008481526020908190206040805160a0810182526005860290920180546001600160a01b03908116845260018201541693830193909352600283018054929392918401916108e890611e0e565b80601f016020809104026020016040519081016040528092919081815260200182805461091490611e0e565b80156109615780601f1061093657610100808354040283529160200191610961565b820191906000526020600020905b81548152906001019060200180831161094457829003601f168201915b505050505081526020016003820154815260200160048201548152505081526020019060010190610892565b50505050905090565b6001600160a01b0385163314806109b257506109b2853361028a565b610a105760405162461bcd60e51b815260206004820152602960248201527f455243313135353a2063616c6c6572206973206e6f74206f776e6572206e6f7260448201526808185c1c1c9bdd995960ba1b6064820152608401610359565b61052f858585858561107a565b6004546001600160a01b03163314610a775760405162461bcd60e51b815260206004820181905260248201527f4f776e61626c653a2063616c6c6572206973206e6f7420746865206f776e65726044820152606401610359565b6001600160a01b038116610adc5760405162461bcd60e51b815260206004820152602660248201527f4f776e61626c653a206e6577206f776e657220697320746865207a65726f206160448201526564647265737360d01b6064820152608401610359565b610ae581610f48565b50565b336001600160a01b03841614610afd57600080fd5b610b088383836111b2565b60098054906000610b1883611f96565b9190505550505050565b505050505050565b6001600160a01b03163b151590565b606081600003610b605750506040805180820190915260018152600360fc1b602082015290565b8160005b8115610b8a5780610b7481611f2a565b9150610b839050600a83611fc3565b9150610b64565b60008167ffffffffffffffff811115610ba557610ba56118b8565b6040519080825280601f01601f191660200182016040528015610bcf576020820181803683370190505b5090505b8415610c3a57610be4600183611fd7565b9150610bf1600a86611fee565b610bfc906030612002565b60f81b818381518110610c1157610c11611f80565b60200101906001600160f81b031916908160001a905350610c33600a86611fc3565b9450610bd3565b949350505050565b8151835114610ca45760405162461bcd60e51b815260206004820152602860248201527f455243313135353a2069647320616e6420616d6f756e7473206c656e677468206044820152670dad2e6dac2e8c6d60c31b6064820152608401610359565b6001600160a01b038416610cca5760405162461bcd60e51b81526004016103599061201a565b33610cd9818787878787611342565b60005b8451811015610dbf576000858281518110610cf957610cf9611f80565b602002602001015190506000858381518110610d1757610d17611f80565b602090810291909101810151600084815280835260408082206001600160a01b038e168352909352919091205490915081811015610d675760405162461bcd60e51b81526004016103599061205f565b6000838152602081815260408083206001600160a01b038e8116855292528083208585039055908b16825281208054849290610da4908490612002565b9250508190555050505080610db890611f2a565b9050610cdc565b50846001600160a01b0316866001600160a01b0316826001600160a01b03167f4a39dc06d4c0dbc64b70af90fd698a233a518aa5d07e595d983b8c0526c8f7fb8787604051610e0f9291906120a9565b60405180910390a4610b228187878787876114bb565b6001600160a01b038416610e855760405162461bcd60e51b815260206004820152602160248201527f455243313135353a206d696e7420746f20746865207a65726f206164647265736044820152607360f81b6064820152608401610359565b336000610e9185611616565b90506000610e9e85611616565b9050610eaf83600089858589611342565b6000868152602081815260408083206001600160a01b038b16845290915281208054879290610edf908490612002565b909155505060408051878152602081018790526001600160a01b03808a1692600092918716917fc3d58168c5ae7397731d063d5bbf3d657854427343f4c083240f7aacaa2d0f62910160405180910390a4610f3f83600089898989611661565b50505050505050565b600480546001600160a01b038381166001600160a01b0319831681179093556040519116919082907f8be0079c531659141344cd1fd0a4f28419497f9722a3daafe3b4186f6b6457e090600090a35050565b816001600160a01b0316836001600160a01b03160361100d5760405162461bcd60e51b815260206004820152602960248201527f455243313135353a2073657474696e6720617070726f76616c20737461747573604482015268103337b91039b2b63360b91b6064820152608401610359565b6001600160a01b03838116600081815260016020908152604080832094871680845294825291829020805460ff191686151590811790915591519182527f17307eab39ab6107e8899845ad3d59bd9653f200f220920489ca2b5937696c31910160405180910390a3505050565b6001600160a01b0384166110a05760405162461bcd60e51b81526004016103599061201a565b3360006110ac85611616565b905060006110b985611616565b90506110c9838989858589611342565b6000868152602081815260408083206001600160a01b038c1684529091529020548581101561110a5760405162461bcd60e51b81526004016103599061205f565b6000878152602081815260408083206001600160a01b038d8116855292528083208985039055908a16825281208054889290611147908490612002565b909155505060408051888152602081018890526001600160a01b03808b16928c821692918816917fc3d58168c5ae7397731d063d5bbf3d657854427343f4c083240f7aacaa2d0f62910160405180910390a46111a7848a8a8a8a8a611661565b505050505050505050565b6001600160a01b0383166112145760405162461bcd60e51b815260206004820152602360248201527f455243313135353a206275726e2066726f6d20746865207a65726f206164647260448201526265737360e81b6064820152608401610359565b33600061122084611616565b9050600061122d84611616565b905061124d83876000858560405180602001604052806000815250611342565b6000858152602081815260408083206001600160a01b038a168452909152902054848110156112ca5760405162461bcd60e51b8152602060048201526024808201527f455243313135353a206275726e20616d6f756e7420657863656564732062616c604482015263616e636560e01b6064820152608401610359565b6000868152602081815260408083206001600160a01b038b81168086529184528285208a8703905582518b81529384018a90529092908816917fc3d58168c5ae7397731d063d5bbf3d657854427343f4c083240f7aacaa2d0f62910160405180910390a4604080516020810190915260009052610f3f565b6001600160a01b0385166113c95760005b83518110156113c75782818151811061136e5761136e611f80565b60200260200101516003600086848151811061138c5761138c611f80565b6020026020010151815260200190815260200160002060008282546113b19190612002565b909155506113c0905081611f2a565b9050611353565b505b6001600160a01b038416610b225760005b8351811015610f3f5760008482815181106113f7576113f7611f80565b60200260200101519050600084838151811061141557611415611f80565b60200260200101519050600060036000848152602001908152602001600020549050818110156114985760405162461bcd60e51b815260206004820152602860248201527f455243313135353a206275726e20616d6f756e74206578636565647320746f74604482015267616c537570706c7960c01b6064820152608401610359565b600092835260036020526040909220910390556114b481611f2a565b90506113da565b6001600160a01b0384163b15610b225760405163bc197c8160e01b81526001600160a01b0385169063bc197c81906114ff90899089908890889088906004016120d7565b6020604051808303816000875af192505050801561153a575060408051601f3d908101601f1916820190925261153791810190612135565b60015b6115e657611546612152565b806308c379a00361157f575061155a61216e565b806115655750611581565b8060405162461bcd60e51b8152600401610359919061188c565b505b60405162461bcd60e51b815260206004820152603460248201527f455243313135353a207472616e7366657220746f206e6f6e20455243313135356044820152732932b1b2b4bb32b91034b6b83632b6b2b73a32b960611b6064820152608401610359565b6001600160e01b0319811663bc197c8160e01b14610f3f5760405162461bcd60e51b8152600401610359906121f8565b6040805160018082528183019092526060916000919060208083019080368337019050509050828160008151811061165057611650611f80565b602090810291909101015292915050565b6001600160a01b0384163b15610b225760405163f23a6e6160e01b81526001600160a01b0385169063f23a6e61906116a59089908990889088908890600401612240565b6020604051808303816000875af19250505080156116e0575060408051601f3d908101601f191682019092526116dd91810190612135565b60015b6116ec57611546612152565b6001600160e01b0319811663f23a6e6160e01b14610f3f5760405162461bcd60e51b8152600401610359906121f8565b82805461172890611e0e565b90600052602060002090601f01602090048101928261174a5760008555611790565b82601f1061176357805160ff1916838001178555611790565b82800160010185558215611790579182015b82811115611790578251825591602001919060010190611775565b5061179c9291506117a0565b5090565b5b8082111561179c57600081556001016117a1565b6001600160a01b0381168114610ae557600080fd5b600080604083850312156117dd57600080fd5b82356117e8816117b5565b946020939093013593505050565b6001600160e01b031981168114610ae557600080fd5b60006020828403121561181e57600080fd5b8135611829816117f6565b9392505050565b60005b8381101561184b578181015183820152602001611833565b8381111561185a576000848401525b50505050565b60008151808452611878816020860160208601611830565b601f01601f19169290920160200192915050565b6020815260006118296020830184611860565b6000602082840312156118b157600080fd5b5035919050565b634e487b7160e01b600052604160045260246000fd5b601f8201601f1916810167ffffffffffffffff811182821017156118f4576118f46118b8565b6040525050565b600067ffffffffffffffff821115611915576119156118b8565b5060051b60200190565b600082601f83011261193057600080fd5b8135602061193d826118fb565b60405161194a82826118ce565b83815260059390931b850182019282810191508684111561196a57600080fd5b8286015b84811015611985578035835291830191830161196e565b509695505050505050565b600067ffffffffffffffff8311156119aa576119aa6118b8565b6040516119c1601f8501601f1916602001826118ce565b8091508381528484840111156119d657600080fd5b83836020830137600060208583010152509392505050565b600082601f8301126119ff57600080fd5b61182983833560208501611990565b600080600080600060a08688031215611a2657600080fd5b8535611a31816117b5565b94506020860135611a41816117b5565b9350604086013567ffffffffffffffff80821115611a5e57600080fd5b611a6a89838a0161191f565b94506060880135915080821115611a8057600080fd5b611a8c89838a0161191f565b93506080880135915080821115611aa257600080fd5b50611aaf888289016119ee565b9150509295509295909350565b600080600060608486031215611ad157600080fd5b8335611adc816117b5565b925060208401359150604084013567ffffffffffffffff811115611aff57600080fd5b8401601f81018613611b1057600080fd5b611b1f86823560208401611990565b9150509250925092565b60008060408385031215611b3c57600080fd5b823567ffffffffffffffff80821115611b5457600080fd5b818501915085601f830112611b6857600080fd5b81356020611b75826118fb565b604051611b8282826118ce565b83815260059390931b8501820192828101915089841115611ba257600080fd5b948201945b83861015611bc9578535611bba816117b5565b82529482019490820190611ba7565b96505086013592505080821115611bdf57600080fd5b50611bec8582860161191f565b9150509250929050565b600081518084526020808501945080840160005b83811015611c2657815187529582019590820190600101611c0a565b509495945050505050565b6020815260006118296020830184611bf6565b60008060408385031215611c5757600080fd5b8235611c62816117b5565b915060208301358015158114611c7757600080fd5b809150509250929050565b60006020808301818452808551808352604092508286019150828160051b87010184880160005b83811015611d1757888303603f19018552815180516001600160a01b0390811685528882015116888501528681015160a088860181905290611ced82870182611860565b60608481015190880152608093840151939096019290925250509386019390860190600101611ca9565b509098975050505050505050565b60008060408385031215611d3857600080fd5b8235611d43816117b5565b91506020830135611c77816117b5565b600080600080600060a08688031215611d6b57600080fd5b8535611d76816117b5565b94506020860135611d86816117b5565b93506040860135925060608601359150608086013567ffffffffffffffff811115611db057600080fd5b611aaf888289016119ee565b600060208284031215611dce57600080fd5b8135611829816117b5565b600080600060608486031215611dee57600080fd5b8335611df9816117b5565b95602085013595506040909401359392505050565b600181811c90821680611e2257607f821691505b602082108103611e4257634e487b7160e01b600052602260045260246000fd5b50919050565b8054600090600181811c9080831680611e6257607f831692505b60208084108203611e8357634e487b7160e01b600052602260045260246000fd5b818015611e975760018114611ea857611ed5565b60ff19861689528489019650611ed5565b60008881526020902060005b86811015611ecd5781548b820152908501908301611eb4565b505084890196505b50505050505092915050565b6000611eed8286611e48565b8451611efd818360208901611830565b611f0981830186611e48565b979650505050505050565b634e487b7160e01b600052601160045260246000fd5b600060018201611f3c57611f3c611f14565b5060010190565b6001600160a01b03858116825284166020820152608060408201819052600090611f6f90830185611860565b905082606083015295945050505050565b634e487b7160e01b600052603260045260246000fd5b600081611fa557611fa5611f14565b506000190190565b634e487b7160e01b600052601260045260246000fd5b600082611fd257611fd2611fad565b500490565b600082821015611fe957611fe9611f14565b500390565b600082611ffd57611ffd611fad565b500690565b6000821982111561201557612015611f14565b500190565b60208082526025908201527f455243313135353a207472616e7366657220746f20746865207a65726f206164604082015264647265737360d81b606082015260800190565b6020808252602a908201527f455243313135353a20696e73756666696369656e742062616c616e636520666f60408201526939103a3930b739b332b960b11b606082015260800190565b6040815260006120bc6040830185611bf6565b82810360208401526120ce8185611bf6565b95945050505050565b6001600160a01b0386811682528516602082015260a06040820181905260009061210390830186611bf6565b82810360608401526121158186611bf6565b905082810360808401526121298185611860565b98975050505050505050565b60006020828403121561214757600080fd5b8151611829816117f6565b600060033d111561216b5760046000803e5060005160e01c5b90565b600060443d101561217c5790565b6040516003193d81016004833e81513d67ffffffffffffffff81602484011181841117156121ac57505050505090565b82850191508151818111156121c45750505050505090565b843d87010160208285010111156121de5750505050505090565b6121ed602082860101876118ce565b509095945050505050565b60208082526028908201527f455243313135353a204552433131353552656365697665722072656a656374656040820152676420746f6b656e7360c01b606082015260800190565b6001600160a01b03868116825285166020820152604081018490526060810183905260a060808201819052600090611f099083018461186056fea2646970667358221220a271242af7bda686776eb597c257b453b509cb4151689b78a4a789c0c043d63864736f6c634300080e0033697066733a2f2f62616679626569686e75353471726b7577326e62336f366d667a6775747164667769327a6262746a65757865707a6835736b7570756e64787967612f",
  "immutableReferences": {},
  "source": "// SPDX-License-Identifier: MIT\n\npragma solidity ^0.8.14;\n\n// Import ERC1155 token contract from Openzeppelin\n\nimport \"../node_modules/@openzeppelin/contracts/token/ERC1155/ERC1155.sol\";\nimport \"../node_modules/@openzeppelin/contracts/access/Ownable.sol\";\nimport \"../node_modules/@openzeppelin/contracts/utils/Strings.sol\";\nimport \"../node_modules/@openzeppelin/contracts/token/ERC1155/extensions/ERC1155Supply.sol\";\n\ncontract Kudos is ERC1155Supply, Ownable {\n    string private _baseUri = \"ipfs://bafybeihnu54qrkuw2nb3o6mfzgutqdfwi2zbbtjeuxepzh5skupundxyga/\";\n    string private _baseExtension = \".json\";\n    string public name = \"More Than Kudos\";\n    string public symbol = \"MTK\";\n    uint256 public supply = 3; // Initial supply\n    mapping(uint256 => string) private _uris;\n\n    event SendMessage(address from, address receiver, string message, uint256 timestamp);\n  \n    struct KudosStruct {\n        address sender;\n        address receiver;\n        string message;\n        uint256 timestamp;\n        uint256 tokenId;\n    }\n\n    KudosStruct[] kudos;\n\n    constructor() ERC1155(_baseUri) {\n        _mint(msg.sender, 1, 1, \"\");\n        _mint(msg.sender, 2, 1, \"\");\n        _mint(msg.sender, 3, 1, \"\");\n    }\n\n    function uri(uint256 tokenId) override public view returns (string memory) {\n        return(string(abi.encodePacked(_baseUri, Strings.toString(tokenId),_baseExtension))\n        );\n    }\n\n    function sendKudos(address payable receiver, uint256 tokenId, string memory message ) public {\n        kudos.push(KudosStruct(msg.sender, receiver, message, block.timestamp, tokenId));\n        require(msg.sender != receiver);\n        _mint(receiver, tokenId, 1, \"\");\n        supply++;\n\n        emit SendMessage(msg.sender, receiver, message, block.timestamp);\n    }\n\n    function getAllKudos() public view returns (KudosStruct[] memory) {\n        return kudos;\n    }\n\n    function burn(address account, uint256 id, uint256 amount) public {\n        require(msg.sender == account);\n        _burn(account, id, amount);\n        supply--;\n    } \n}",
  "sourcePath": "/Users/thomas.viana/Developer/kudos-web3/smart-contract/contracts/Kudos.sol",
  "compiler": {
    "name": "solc",
    "version": "0.8.14+commit.80d49f37.Emscripten.clang"
  },
  "schemaVersion": "3.4.7",
  "updatedAt": "2022-06-20T20:37:06.522Z",
  "networkType": "ethereum",
  "devdoc": {
    "kind": "dev",
    "methods": {
      "balanceOf(address,uint256)": {
        "details": "See {IERC1155-balanceOf}. Requirements: - `account` cannot be the zero address."
      },
      "balanceOfBatch(address[],uint256[])": {
        "details": "See {IERC1155-balanceOfBatch}. Requirements: - `accounts` and `ids` must have the same length."
      },
      "exists(uint256)": {
        "details": "Indicates whether any token exist with a given id, or not."
      },
      "isApprovedForAll(address,address)": {
        "details": "See {IERC1155-isApprovedForAll}."
      },
      "owner()": {
        "details": "Returns the address of the current owner."
      },
      "renounceOwnership()": {
        "details": "Leaves the contract without owner. It will not be possible to call `onlyOwner` functions anymore. Can only be called by the current owner. NOTE: Renouncing ownership will leave the contract without an owner, thereby removing any functionality that is only available to the owner."
      },
      "safeBatchTransferFrom(address,address,uint256[],uint256[],bytes)": {
        "details": "See {IERC1155-safeBatchTransferFrom}."
      },
      "safeTransferFrom(address,address,uint256,uint256,bytes)": {
        "details": "See {IERC1155-safeTransferFrom}."
      },
      "setApprovalForAll(address,bool)": {
        "details": "See {IERC1155-setApprovalForAll}."
      },
      "supportsInterface(bytes4)": {
        "details": "See {IERC165-supportsInterface}."
      },
      "totalSupply(uint256)": {
        "details": "Total amount of tokens in with a given id."
      },
      "transferOwnership(address)": {
        "details": "Transfers ownership of the contract to a new account (`newOwner`). Can only be called by the current owner."
      }
    },
    "version": 1
  },
  "userdoc": {
    "kind": "user",
    "methods": {},
    "version": 1
  }
}