{
  "contractName": "Kudos",
  "abi": [
    {
      "inputs": [
        {
          "internalType": "string",
          "name": "_initBaseURI",
          "type": "string"
        }
      ],
      "stateMutability": "nonpayable",
      "type": "constructor"
    },
    {
      "anonymous": false,
      "inputs": [
        {
          "indexed": true,
          "internalType": "address",
          "name": "account",
          "type": "address"
        },
        {
          "indexed": true,
          "internalType": "address",
          "name": "operator",
          "type": "address"
        },
        {
          "indexed": false,
          "internalType": "bool",
          "name": "approved",
          "type": "bool"
        }
      ],
      "name": "ApprovalForAll",
      "type": "event"
    },
    {
      "anonymous": false,
      "inputs": [
        {
          "indexed": true,
          "internalType": "address",
          "name": "previousOwner",
          "type": "address"
        },
        {
          "indexed": true,
          "internalType": "address",
          "name": "newOwner",
          "type": "address"
        }
      ],
      "name": "OwnershipTransferred",
      "type": "event"
    },
    {
      "anonymous": false,
      "inputs": [
        {
          "indexed": false,
          "internalType": "address",
          "name": "from",
          "type": "address"
        },
        {
          "indexed": false,
          "internalType": "address",
          "name": "receiver",
          "type": "address"
        },
        {
          "indexed": false,
          "internalType": "string",
          "name": "message",
          "type": "string"
        },
        {
          "indexed": false,
          "internalType": "uint256",
          "name": "timestamp",
          "type": "uint256"
        }
      ],
      "name": "SendMessage",
      "type": "event"
    },
    {
      "anonymous": false,
      "inputs": [
        {
          "indexed": true,
          "internalType": "address",
          "name": "operator",
          "type": "address"
        },
        {
          "indexed": true,
          "internalType": "address",
          "name": "from",
          "type": "address"
        },
        {
          "indexed": true,
          "internalType": "address",
          "name": "to",
          "type": "address"
        },
        {
          "indexed": false,
          "internalType": "uint256[]",
          "name": "ids",
          "type": "uint256[]"
        },
        {
          "indexed": false,
          "internalType": "uint256[]",
          "name": "values",
          "type": "uint256[]"
        }
      ],
      "name": "TransferBatch",
      "type": "event"
    },
    {
      "anonymous": false,
      "inputs": [
        {
          "indexed": true,
          "internalType": "address",
          "name": "operator",
          "type": "address"
        },
        {
          "indexed": true,
          "internalType": "address",
          "name": "from",
          "type": "address"
        },
        {
          "indexed": true,
          "internalType": "address",
          "name": "to",
          "type": "address"
        },
        {
          "indexed": false,
          "internalType": "uint256",
          "name": "id",
          "type": "uint256"
        },
        {
          "indexed": false,
          "internalType": "uint256",
          "name": "value",
          "type": "uint256"
        }
      ],
      "name": "TransferSingle",
      "type": "event"
    },
    {
      "anonymous": false,
      "inputs": [
        {
          "indexed": false,
          "internalType": "string",
          "name": "value",
          "type": "string"
        },
        {
          "indexed": true,
          "internalType": "uint256",
          "name": "id",
          "type": "uint256"
        }
      ],
      "name": "URI",
      "type": "event"
    },
    {
      "inputs": [
        {
          "internalType": "address",
          "name": "account",
          "type": "address"
        },
        {
          "internalType": "uint256",
          "name": "id",
          "type": "uint256"
        }
      ],
      "name": "balanceOf",
      "outputs": [
        {
          "internalType": "uint256",
          "name": "",
          "type": "uint256"
        }
      ],
      "stateMutability": "view",
      "type": "function"
    },
    {
      "inputs": [
        {
          "internalType": "address[]",
          "name": "accounts",
          "type": "address[]"
        },
        {
          "internalType": "uint256[]",
          "name": "ids",
          "type": "uint256[]"
        }
      ],
      "name": "balanceOfBatch",
      "outputs": [
        {
          "internalType": "uint256[]",
          "name": "",
          "type": "uint256[]"
        }
      ],
      "stateMutability": "view",
      "type": "function"
    },
    {
      "inputs": [
        {
          "internalType": "uint256",
          "name": "id",
          "type": "uint256"
        }
      ],
      "name": "exists",
      "outputs": [
        {
          "internalType": "bool",
          "name": "",
          "type": "bool"
        }
      ],
      "stateMutability": "view",
      "type": "function"
    },
    {
      "inputs": [
        {
          "internalType": "address",
          "name": "account",
          "type": "address"
        },
        {
          "internalType": "address",
          "name": "operator",
          "type": "address"
        }
      ],
      "name": "isApprovedForAll",
      "outputs": [
        {
          "internalType": "bool",
          "name": "",
          "type": "bool"
        }
      ],
      "stateMutability": "view",
      "type": "function"
    },
    {
      "inputs": [],
      "name": "name",
      "outputs": [
        {
          "internalType": "string",
          "name": "",
          "type": "string"
        }
      ],
      "stateMutability": "view",
      "type": "function"
    },
    {
      "inputs": [],
      "name": "owner",
      "outputs": [
        {
          "internalType": "address",
          "name": "",
          "type": "address"
        }
      ],
      "stateMutability": "view",
      "type": "function"
    },
    {
      "inputs": [],
      "name": "renounceOwnership",
      "outputs": [],
      "stateMutability": "nonpayable",
      "type": "function"
    },
    {
      "inputs": [
        {
          "internalType": "address",
          "name": "from",
          "type": "address"
        },
        {
          "internalType": "address",
          "name": "to",
          "type": "address"
        },
        {
          "internalType": "uint256[]",
          "name": "ids",
          "type": "uint256[]"
        },
        {
          "internalType": "uint256[]",
          "name": "amounts",
          "type": "uint256[]"
        },
        {
          "internalType": "bytes",
          "name": "data",
          "type": "bytes"
        }
      ],
      "name": "safeBatchTransferFrom",
      "outputs": [],
      "stateMutability": "nonpayable",
      "type": "function"
    },
    {
      "inputs": [
        {
          "internalType": "address",
          "name": "from",
          "type": "address"
        },
        {
          "internalType": "address",
          "name": "to",
          "type": "address"
        },
        {
          "internalType": "uint256",
          "name": "id",
          "type": "uint256"
        },
        {
          "internalType": "uint256",
          "name": "amount",
          "type": "uint256"
        },
        {
          "internalType": "bytes",
          "name": "data",
          "type": "bytes"
        }
      ],
      "name": "safeTransferFrom",
      "outputs": [],
      "stateMutability": "nonpayable",
      "type": "function"
    },
    {
      "inputs": [
        {
          "internalType": "address",
          "name": "operator",
          "type": "address"
        },
        {
          "internalType": "bool",
          "name": "approved",
          "type": "bool"
        }
      ],
      "name": "setApprovalForAll",
      "outputs": [],
      "stateMutability": "nonpayable",
      "type": "function"
    },
    {
      "inputs": [],
      "name": "supply",
      "outputs": [
        {
          "internalType": "uint256",
          "name": "",
          "type": "uint256"
        }
      ],
      "stateMutability": "view",
      "type": "function"
    },
    {
      "inputs": [
        {
          "internalType": "bytes4",
          "name": "interfaceId",
          "type": "bytes4"
        }
      ],
      "name": "supportsInterface",
      "outputs": [
        {
          "internalType": "bool",
          "name": "",
          "type": "bool"
        }
      ],
      "stateMutability": "view",
      "type": "function"
    },
    {
      "inputs": [],
      "name": "symbol",
      "outputs": [
        {
          "internalType": "string",
          "name": "",
          "type": "string"
        }
      ],
      "stateMutability": "view",
      "type": "function"
    },
    {
      "inputs": [
        {
          "internalType": "uint256",
          "name": "id",
          "type": "uint256"
        }
      ],
      "name": "totalSupply",
      "outputs": [
        {
          "internalType": "uint256",
          "name": "",
          "type": "uint256"
        }
      ],
      "stateMutability": "view",
      "type": "function"
    },
    {
      "inputs": [
        {
          "internalType": "address",
          "name": "newOwner",
          "type": "address"
        }
      ],
      "name": "transferOwnership",
      "outputs": [],
      "stateMutability": "nonpayable",
      "type": "function"
    },
    {
      "inputs": [
        {
          "internalType": "uint256",
          "name": "tokenId",
          "type": "uint256"
        }
      ],
      "name": "uri",
      "outputs": [
        {
          "internalType": "string",
          "name": "",
          "type": "string"
        }
      ],
      "stateMutability": "view",
      "type": "function"
    },
    {
      "inputs": [
        {
          "internalType": "address payable",
          "name": "receiver",
          "type": "address"
        },
        {
          "internalType": "uint256",
          "name": "tokenId",
          "type": "uint256"
        },
        {
          "internalType": "string",
          "name": "message",
          "type": "string"
        }
      ],
      "name": "sendKudo",
      "outputs": [],
      "stateMutability": "nonpayable",
      "type": "function"
    },
    {
      "inputs": [],
      "name": "getAllkudos",
      "outputs": [
        {
          "components": [
            {
              "internalType": "address",
              "name": "sender",
              "type": "address"
            },
            {
              "internalType": "address",
              "name": "receiver",
              "type": "address"
            },
            {
              "internalType": "string",
              "name": "message",
              "type": "string"
            },
            {
              "internalType": "uint256",
              "name": "timestamp",
              "type": "uint256"
            }
          ],
          "internalType": "struct Kudos.KudosStruct[]",
          "name": "",
          "type": "tuple[]"
        }
      ],
      "stateMutability": "view",
      "type": "function"
    },
    {
      "inputs": [
        {
          "internalType": "address",
          "name": "account",
          "type": "address"
        },
        {
          "internalType": "uint256",
          "name": "id",
          "type": "uint256"
        },
        {
          "internalType": "uint256",
          "name": "amount",
          "type": "uint256"
        }
      ],
      "name": "burn",
      "outputs": [],
      "stateMutability": "nonpayable",
      "type": "function"
    }
  ],
  "bytecode": "0x60806040526040518060400160405280600581526020017f2e6a736f6e000000000000000000000000000000000000000000000000000000815250600690805190602001906200005192919062000263565b506040518060400160405280600f81526020017f4d6f7265205468616e204b75646f730000000000000000000000000000000000815250600790805190602001906200009f92919062000263565b506040518060400160405280600381526020017f4d544b000000000000000000000000000000000000000000000000000000000081525060089080519060200190620000ed92919062000263565b5060006009553480156200010057600080fd5b5060405162004591380380620045918339818101604052810190620001269190620004b0565b8062000138816200017960201b60201c565b50620001596200014d6200019560201b60201c565b6200019d60201b60201c565b80600590805190602001906200017192919062000263565b505062000565565b80600290805190602001906200019192919062000263565b5050565b600033905090565b6000600460009054906101000a900473ffffffffffffffffffffffffffffffffffffffff16905081600460006101000a81548173ffffffffffffffffffffffffffffffffffffffff021916908373ffffffffffffffffffffffffffffffffffffffff1602179055508173ffffffffffffffffffffffffffffffffffffffff168173ffffffffffffffffffffffffffffffffffffffff167f8be0079c531659141344cd1fd0a4f28419497f9722a3daafe3b4186f6b6457e060405160405180910390a35050565b828054620002719062000530565b90600052602060002090601f016020900481019282620002955760008555620002e1565b82601f10620002b057805160ff1916838001178555620002e1565b82800160010185558215620002e1579182015b82811115620002e0578251825591602001919060010190620002c3565b5b509050620002f09190620002f4565b5090565b5b808211156200030f576000816000905550600101620002f5565b5090565b6000604051905090565b600080fd5b600080fd5b600080fd5b600080fd5b6000601f19601f8301169050919050565b7f4e487b7100000000000000000000000000000000000000000000000000000000600052604160045260246000fd5b6200037c8262000331565b810181811067ffffffffffffffff821117156200039e576200039d62000342565b5b80604052505050565b6000620003b362000313565b9050620003c1828262000371565b919050565b600067ffffffffffffffff821115620003e457620003e362000342565b5b620003ef8262000331565b9050602081019050919050565b60005b838110156200041c578082015181840152602081019050620003ff565b838111156200042c576000848401525b50505050565b6000620004496200044384620003c6565b620003a7565b9050828152602081018484840111156200046857620004676200032c565b5b62000475848285620003fc565b509392505050565b600082601f83011262000495576200049462000327565b5b8151620004a784826020860162000432565b91505092915050565b600060208284031215620004c957620004c86200031d565b5b600082015167ffffffffffffffff811115620004ea57620004e962000322565b5b620004f8848285016200047d565b91505092915050565b7f4e487b7100000000000000000000000000000000000000000000000000000000600052602260045260246000fd5b600060028204905060018216806200054957607f821691505b6020821081036200055f576200055e62000501565b5b50919050565b61401c80620005756000396000f3fe608060405234801561001057600080fd5b50600436106101205760003560e01c80638d36c675116100ad578063bd85b03911610071578063bd85b03914610309578063e985e9c514610339578063f242432a14610369578063f2fde38b14610385578063f5298aca146103a157610120565b80638d36c675146102775780638da5cb5b1461029557806395d89b41146102b3578063a22cb465146102d1578063a9704bf4146102ed57610120565b80630e89341c116100f45780630e89341c146101c15780632eb2c2d6146101f15780634e1273f41461020d5780634f558e791461023d578063715018a61461026d57610120565b8062fdd58e1461012557806301ffc9a714610155578063047fc9aa1461018557806306fdde03146101a3575b600080fd5b61013f600480360381019061013a91906124af565b6103bd565b60405161014c91906124fe565b60405180910390f35b61016f600480360381019061016a9190612571565b610485565b60405161017c91906125b9565b60405180910390f35b61018d610567565b60405161019a91906124fe565b60405180910390f35b6101ab61056d565b6040516101b8919061266d565b60405180910390f35b6101db60048036038101906101d6919061268f565b6105fb565b6040516101e8919061266d565b60405180910390f35b61020b600480360381019061020691906128b9565b610632565b005b61022760048036038101906102229190612a4b565b6106d3565b6040516102349190612b81565b60405180910390f35b6102576004803603810190610252919061268f565b6107ec565b60405161026491906125b9565b60405180910390f35b610275610800565b005b61027f610888565b60405161028c9190612d21565b60405180910390f35b61029d610a2f565b6040516102aa9190612d52565b60405180910390f35b6102bb610a59565b6040516102c8919061266d565b60405180910390f35b6102eb60048036038101906102e69190612d99565b610ae7565b005b61030760048036038101906103029190612eb8565b610afd565b005b610323600480360381019061031e919061268f565b610cda565b60405161033091906124fe565b60405180910390f35b610353600480360381019061034e9190612f27565b610cf7565b60405161036091906125b9565b60405180910390f35b610383600480360381019061037e9190612f67565b610d8b565b005b61039f600480360381019061039a9190612ffe565b610e2c565b005b6103bb60048036038101906103b6919061302b565b610f23565b005b60008073ffffffffffffffffffffffffffffffffffffffff168373ffffffffffffffffffffffffffffffffffffffff160361042d576040517f08c379a0000000000000000000000000000000000000000000000000000000008152600401610424906130f0565b60405180910390fd5b60008083815260200190815260200160002060008473ffffffffffffffffffffffffffffffffffffffff1673ffffffffffffffffffffffffffffffffffffffff16815260200190815260200160002054905092915050565b60007fd9b67a26000000000000000000000000000000000000000000000000000000007bffffffffffffffffffffffffffffffffffffffffffffffffffffffff1916827bffffffffffffffffffffffffffffffffffffffffffffffffffffffff1916148061055057507f0e89341c000000000000000000000000000000000000000000000000000000007bffffffffffffffffffffffffffffffffffffffffffffffffffffffff1916827bffffffffffffffffffffffffffffffffffffffffffffffffffffffff1916145b80610560575061055f82610f83565b5b9050919050565b60095481565b6007805461057a9061313f565b80601f01602080910402602001604051908101604052809291908181526020018280546105a69061313f565b80156105f35780601f106105c8576101008083540402835291602001916105f3565b820191906000526020600020905b8154815290600101906020018083116105d657829003601f168201915b505050505081565b6060600561060883610fed565b600660405160200161061c93929190613240565b6040516020818303038152906040529050919050565b61063a61114d565b73ffffffffffffffffffffffffffffffffffffffff168573ffffffffffffffffffffffffffffffffffffffff161480610680575061067f8561067a61114d565b610cf7565b5b6106bf576040517f08c379a00000000000000000000000000000000000000000000000000000000081526004016106b6906132e3565b60405180910390fd5b6106cc8585858585611155565b5050505050565b60608151835114610719576040517f08c379a000000000000000000000000000000000000000000000000000000000815260040161071090613375565b60405180910390fd5b6000835167ffffffffffffffff811115610736576107356126c1565b5b6040519080825280602002602001820160405280156107645781602001602082028036833780820191505090505b50905060005b84518110156107e1576107b185828151811061078957610788613395565b5b60200260200101518583815181106107a4576107a3613395565b5b60200260200101516103bd565b8282815181106107c4576107c3613395565b5b602002602001018181525050806107da906133f3565b905061076a565b508091505092915050565b6000806107f883610cda565b119050919050565b61080861114d565b73ffffffffffffffffffffffffffffffffffffffff16610826610a2f565b73ffffffffffffffffffffffffffffffffffffffff161461087c576040517f08c379a000000000000000000000000000000000000000000000000000000000815260040161087390613487565b60405180910390fd5b6108866000611476565b565b6060600b805480602002602001604051908101604052809291908181526020016000905b82821015610a2657838290600052602060002090600402016040518060800160405290816000820160009054906101000a900473ffffffffffffffffffffffffffffffffffffffff1673ffffffffffffffffffffffffffffffffffffffff1673ffffffffffffffffffffffffffffffffffffffff1681526020016001820160009054906101000a900473ffffffffffffffffffffffffffffffffffffffff1673ffffffffffffffffffffffffffffffffffffffff1673ffffffffffffffffffffffffffffffffffffffff16815260200160028201805461098b9061313f565b80601f01602080910402602001604051908101604052809291908181526020018280546109b79061313f565b8015610a045780601f106109d957610100808354040283529160200191610a04565b820191906000526020600020905b8154815290600101906020018083116109e757829003601f168201915b50505050508152602001600382015481525050815260200190600101906108ac565b50505050905090565b6000600460009054906101000a900473ffffffffffffffffffffffffffffffffffffffff16905090565b60088054610a669061313f565b80601f0160208091040260200160405190810160405280929190818152602001828054610a929061313f565b8015610adf5780601f10610ab457610100808354040283529160200191610adf565b820191906000526020600020905b815481529060010190602001808311610ac257829003601f168201915b505050505081565b610af9610af261114d565b838361153c565b5050565b600b60405180608001604052803373ffffffffffffffffffffffffffffffffffffffff1681526020018573ffffffffffffffffffffffffffffffffffffffff16815260200183815260200142815250908060018154018082558091505060019003906000526020600020906004020160009091909190915060008201518160000160006101000a81548173ffffffffffffffffffffffffffffffffffffffff021916908373ffffffffffffffffffffffffffffffffffffffff16021790555060208201518160010160006101000a81548173ffffffffffffffffffffffffffffffffffffffff021916908373ffffffffffffffffffffffffffffffffffffffff1602179055506040820151816002019080519060200190610c1f929190612364565b506060820151816003015550508273ffffffffffffffffffffffffffffffffffffffff163373ffffffffffffffffffffffffffffffffffffffff1603610c6457600080fd5b610c8083836001604051806020016040528060008152506116a8565b60096000815480929190610c93906133f3565b91905055507faecd1b4f3f7b504b3f70641f6da501cff5a770fd60726496ac1bf6f8644bd72733848342604051610ccd9493929190613506565b60405180910390a1505050565b600060036000838152602001908152602001600020549050919050565b6000600160008473ffffffffffffffffffffffffffffffffffffffff1673ffffffffffffffffffffffffffffffffffffffff16815260200190815260200160002060008373ffffffffffffffffffffffffffffffffffffffff1673ffffffffffffffffffffffffffffffffffffffff16815260200190815260200160002060009054906101000a900460ff16905092915050565b610d9361114d565b73ffffffffffffffffffffffffffffffffffffffff168573ffffffffffffffffffffffffffffffffffffffff161480610dd95750610dd885610dd361114d565b610cf7565b5b610e18576040517f08c379a0000000000000000000000000000000000000000000000000000000008152600401610e0f906135c4565b60405180910390fd5b610e258585858585611858565b5050505050565b610e3461114d565b73ffffffffffffffffffffffffffffffffffffffff16610e52610a2f565b73ffffffffffffffffffffffffffffffffffffffff1614610ea8576040517f08c379a0000000000000000000000000000000000000000000000000000000008152600401610e9f90613487565b60405180910390fd5b600073ffffffffffffffffffffffffffffffffffffffff168173ffffffffffffffffffffffffffffffffffffffff1603610f17576040517f08c379a0000000000000000000000000000000000000000000000000000000008152600401610f0e90613656565b60405180910390fd5b610f2081611476565b50565b8273ffffffffffffffffffffffffffffffffffffffff163373ffffffffffffffffffffffffffffffffffffffff1614610f5b57600080fd5b610f66838383611af3565b60096000815480929190610f7990613676565b9190505550505050565b60007f01ffc9a7000000000000000000000000000000000000000000000000000000007bffffffffffffffffffffffffffffffffffffffffffffffffffffffff1916827bffffffffffffffffffffffffffffffffffffffffffffffffffffffff1916149050919050565b606060008203611034576040518060400160405280600181526020017f30000000000000000000000000000000000000000000000000000000000000008152509050611148565b600082905060005b6000821461106657808061104f906133f3565b915050600a8261105f91906136ce565b915061103c565b60008167ffffffffffffffff811115611082576110816126c1565b5b6040519080825280601f01601f1916602001820160405280156110b45781602001600182028036833780820191505090505b5090505b60008514611141576001826110cd91906136ff565b9150600a856110dc9190613733565b60306110e89190613764565b60f81b8183815181106110fe576110fd613395565b5b60200101907effffffffffffffffffffffffffffffffffffffffffffffffffffffffffffff1916908160001a905350600a8561113a91906136ce565b94506110b8565b8093505050505b919050565b600033905090565b8151835114611199576040517f08c379a00000000000000000000000000000000000000000000000000000000081526004016111909061382c565b60405180910390fd5b600073ffffffffffffffffffffffffffffffffffffffff168473ffffffffffffffffffffffffffffffffffffffff1603611208576040517f08c379a00000000000000000000000000000000000000000000000000000000081526004016111ff906138be565b60405180910390fd5b600061121261114d565b9050611222818787878787611d39565b60005b84518110156113d357600085828151811061124357611242613395565b5b60200260200101519050600085838151811061126257611261613395565b5b60200260200101519050600080600084815260200190815260200160002060008b73ffffffffffffffffffffffffffffffffffffffff1673ffffffffffffffffffffffffffffffffffffffff16815260200190815260200160002054905081811015611303576040517f08c379a00000000000000000000000000000000000000000000000000000000081526004016112fa90613950565b60405180910390fd5b81810360008085815260200190815260200160002060008c73ffffffffffffffffffffffffffffffffffffffff1673ffffffffffffffffffffffffffffffffffffffff168152602001908152602001600020819055508160008085815260200190815260200160002060008b73ffffffffffffffffffffffffffffffffffffffff1673ffffffffffffffffffffffffffffffffffffffff16815260200190815260200160002060008282546113b89190613764565b92505081905550505050806113cc906133f3565b9050611225565b508473ffffffffffffffffffffffffffffffffffffffff168673ffffffffffffffffffffffffffffffffffffffff168273ffffffffffffffffffffffffffffffffffffffff167f4a39dc06d4c0dbc64b70af90fd698a233a518aa5d07e595d983b8c0526c8f7fb878760405161144a929190613970565b60405180910390a4611460818787878787611f09565b61146e818787878787611f11565b505050505050565b6000600460009054906101000a900473ffffffffffffffffffffffffffffffffffffffff16905081600460006101000a81548173ffffffffffffffffffffffffffffffffffffffff021916908373ffffffffffffffffffffffffffffffffffffffff1602179055508173ffffffffffffffffffffffffffffffffffffffff168173ffffffffffffffffffffffffffffffffffffffff167f8be0079c531659141344cd1fd0a4f28419497f9722a3daafe3b4186f6b6457e060405160405180910390a35050565b8173ffffffffffffffffffffffffffffffffffffffff168373ffffffffffffffffffffffffffffffffffffffff16036115aa576040517f08c379a00000000000000000000000000000000000000000000000000000000081526004016115a190613a19565b60405180910390fd5b80600160008573ffffffffffffffffffffffffffffffffffffffff1673ffffffffffffffffffffffffffffffffffffffff16815260200190815260200160002060008473ffffffffffffffffffffffffffffffffffffffff1673ffffffffffffffffffffffffffffffffffffffff16815260200190815260200160002060006101000a81548160ff0219169083151502179055508173ffffffffffffffffffffffffffffffffffffffff168373ffffffffffffffffffffffffffffffffffffffff167f17307eab39ab6107e8899845ad3d59bd9653f200f220920489ca2b5937696c318360405161169b91906125b9565b60405180910390a3505050565b600073ffffffffffffffffffffffffffffffffffffffff168473ffffffffffffffffffffffffffffffffffffffff1603611717576040517f08c379a000000000000000000000000000000000000000000000000000000000815260040161170e90613aab565b60405180910390fd5b600061172161114d565b9050600061172e856120e8565b9050600061173b856120e8565b905061174c83600089858589611d39565b8460008088815260200190815260200160002060008973ffffffffffffffffffffffffffffffffffffffff1673ffffffffffffffffffffffffffffffffffffffff16815260200190815260200160002060008282546117ab9190613764565b925050819055508673ffffffffffffffffffffffffffffffffffffffff16600073ffffffffffffffffffffffffffffffffffffffff168473ffffffffffffffffffffffffffffffffffffffff167fc3d58168c5ae7397731d063d5bbf3d657854427343f4c083240f7aacaa2d0f628989604051611829929190613acb565b60405180910390a461184083600089858589611f09565b61184f83600089898989612162565b50505050505050565b600073ffffffffffffffffffffffffffffffffffffffff168473ffffffffffffffffffffffffffffffffffffffff16036118c7576040517f08c379a00000000000000000000000000000000000000000000000000000000081526004016118be906138be565b60405180910390fd5b60006118d161114d565b905060006118de856120e8565b905060006118eb856120e8565b90506118fb838989858589611d39565b600080600088815260200190815260200160002060008a73ffffffffffffffffffffffffffffffffffffffff1673ffffffffffffffffffffffffffffffffffffffff16815260200190815260200160002054905085811015611992576040517f08c379a000000000000000000000000000000000000000000000000000000000815260040161198990613950565b60405180910390fd5b85810360008089815260200190815260200160002060008b73ffffffffffffffffffffffffffffffffffffffff1673ffffffffffffffffffffffffffffffffffffffff168152602001908152602001600020819055508560008089815260200190815260200160002060008a73ffffffffffffffffffffffffffffffffffffffff1673ffffffffffffffffffffffffffffffffffffffff1681526020019081526020016000206000828254611a479190613764565b925050819055508773ffffffffffffffffffffffffffffffffffffffff168973ffffffffffffffffffffffffffffffffffffffff168573ffffffffffffffffffffffffffffffffffffffff167fc3d58168c5ae7397731d063d5bbf3d657854427343f4c083240f7aacaa2d0f628a8a604051611ac4929190613acb565b60405180910390a4611ada848a8a86868a611f09565b611ae8848a8a8a8a8a612162565b505050505050505050565b600073ffffffffffffffffffffffffffffffffffffffff168373ffffffffffffffffffffffffffffffffffffffff1603611b62576040517f08c379a0000000000000000000000000000000000000000000000000000000008152600401611b5990613b66565b60405180910390fd5b6000611b6c61114d565b90506000611b79846120e8565b90506000611b86846120e8565b9050611ba683876000858560405180602001604052806000815250611d39565b600080600087815260200190815260200160002060008873ffffffffffffffffffffffffffffffffffffffff1673ffffffffffffffffffffffffffffffffffffffff16815260200190815260200160002054905084811015611c3d576040517f08c379a0000000000000000000000000000000000000000000000000000000008152600401611c3490613bf8565b60405180910390fd5b84810360008088815260200190815260200160002060008973ffffffffffffffffffffffffffffffffffffffff1673ffffffffffffffffffffffffffffffffffffffff16815260200190815260200160002081905550600073ffffffffffffffffffffffffffffffffffffffff168773ffffffffffffffffffffffffffffffffffffffff168573ffffffffffffffffffffffffffffffffffffffff167fc3d58168c5ae7397731d063d5bbf3d657854427343f4c083240f7aacaa2d0f628989604051611d0a929190613acb565b60405180910390a4611d3084886000868660405180602001604052806000815250611f09565b50505050505050565b611d47868686868686612339565b600073ffffffffffffffffffffffffffffffffffffffff168573ffffffffffffffffffffffffffffffffffffffff1603611df85760005b8351811015611df657828181518110611d9a57611d99613395565b5b602002602001015160036000868481518110611db957611db8613395565b5b602002602001015181526020019081526020016000206000828254611dde9190613764565b9250508190555080611def906133f3565b9050611d7e565b505b600073ffffffffffffffffffffffffffffffffffffffff168473ffffffffffffffffffffffffffffffffffffffff1603611f015760005b8351811015611eff576000848281518110611e4d57611e4c613395565b5b602002602001015190506000848381518110611e6c57611e6b613395565b5b6020026020010151905060006003600084815260200190815260200160002054905081811015611ed1576040517f08c379a0000000000000000000000000000000000000000000000000000000008152600401611ec890613c8a565b60405180910390fd5b818103600360008581526020019081526020016000208190555050505080611ef8906133f3565b9050611e2f565b505b505050505050565b505050505050565b611f308473ffffffffffffffffffffffffffffffffffffffff16612341565b156120e0578373ffffffffffffffffffffffffffffffffffffffff1663bc197c8187878686866040518663ffffffff1660e01b8152600401611f76959493929190613cff565b6020604051808303816000875af1925050508015611fb257506040513d601f19601f82011682018060405250810190611faf9190613d7c565b60015b61205757611fbe613db6565b806308c379a00361201a5750611fd2613dd8565b80611fdd575061201c565b806040517f08c379a0000000000000000000000000000000000000000000000000000000008152600401612011919061266d565b60405180910390fd5b505b6040517f08c379a000000000000000000000000000000000000000000000000000000000815260040161204e90613eda565b60405180910390fd5b63bc197c8160e01b7bffffffffffffffffffffffffffffffffffffffffffffffffffffffff1916817bffffffffffffffffffffffffffffffffffffffffffffffffffffffff1916146120de576040517f08c379a00000000000000000000000000000000000000000000000000000000081526004016120d590613f6c565b60405180910390fd5b505b505050505050565b60606000600167ffffffffffffffff811115612107576121066126c1565b5b6040519080825280602002602001820160405280156121355781602001602082028036833780820191505090505b509050828160008151811061214d5761214c613395565b5b60200260200101818152505080915050919050565b6121818473ffffffffffffffffffffffffffffffffffffffff16612341565b15612331578373ffffffffffffffffffffffffffffffffffffffff1663f23a6e6187878686866040518663ffffffff1660e01b81526004016121c7959493929190613f8c565b6020604051808303816000875af192505050801561220357506040513d601f19601f820116820180604052508101906122009190613d7c565b60015b6122a85761220f613db6565b806308c379a00361226b5750612223613dd8565b8061222e575061226d565b806040517f08c379a0000000000000000000000000000000000000000000000000000000008152600401612262919061266d565b60405180910390fd5b505b6040517f08c379a000000000000000000000000000000000000000000000000000000000815260040161229f90613eda565b60405180910390fd5b63f23a6e6160e01b7bffffffffffffffffffffffffffffffffffffffffffffffffffffffff1916817bffffffffffffffffffffffffffffffffffffffffffffffffffffffff19161461232f576040517f08c379a000000000000000000000000000000000000000000000000000000000815260040161232690613f6c565b60405180910390fd5b505b505050505050565b505050505050565b6000808273ffffffffffffffffffffffffffffffffffffffff163b119050919050565b8280546123709061313f565b90600052602060002090601f01602090048101928261239257600085556123d9565b82601f106123ab57805160ff19168380011785556123d9565b828001600101855582156123d9579182015b828111156123d85782518255916020019190600101906123bd565b5b5090506123e691906123ea565b5090565b5b808211156124035760008160009055506001016123eb565b5090565b6000604051905090565b600080fd5b600080fd5b600073ffffffffffffffffffffffffffffffffffffffff82169050919050565b60006124468261241b565b9050919050565b6124568161243b565b811461246157600080fd5b50565b6000813590506124738161244d565b92915050565b6000819050919050565b61248c81612479565b811461249757600080fd5b50565b6000813590506124a981612483565b92915050565b600080604083850312156124c6576124c5612411565b5b60006124d485828601612464565b92505060206124e58582860161249a565b9150509250929050565b6124f881612479565b82525050565b600060208201905061251360008301846124ef565b92915050565b60007fffffffff0000000000000000000000000000000000000000000000000000000082169050919050565b61254e81612519565b811461255957600080fd5b50565b60008135905061256b81612545565b92915050565b60006020828403121561258757612586612411565b5b60006125958482850161255c565b91505092915050565b60008115159050919050565b6125b38161259e565b82525050565b60006020820190506125ce60008301846125aa565b92915050565b600081519050919050565b600082825260208201905092915050565b60005b8381101561260e5780820151818401526020810190506125f3565b8381111561261d576000848401525b50505050565b6000601f19601f8301169050919050565b600061263f826125d4565b61264981856125df565b93506126598185602086016125f0565b61266281612623565b840191505092915050565b600060208201905081810360008301526126878184612634565b905092915050565b6000602082840312156126a5576126a4612411565b5b60006126b38482850161249a565b91505092915050565b600080fd5b7f4e487b7100000000000000000000000000000000000000000000000000000000600052604160045260246000fd5b6126f982612623565b810181811067ffffffffffffffff82111715612718576127176126c1565b5b80604052505050565b600061272b612407565b905061273782826126f0565b919050565b600067ffffffffffffffff821115612757576127566126c1565b5b602082029050602081019050919050565b600080fd5b600061278061277b8461273c565b612721565b905080838252602082019050602084028301858111156127a3576127a2612768565b5b835b818110156127cc57806127b8888261249a565b8452602084019350506020810190506127a5565b5050509392505050565b600082601f8301126127eb576127ea6126bc565b5b81356127fb84826020860161276d565b91505092915050565b600080fd5b600067ffffffffffffffff821115612824576128236126c1565b5b61282d82612623565b9050602081019050919050565b82818337600083830152505050565b600061285c61285784612809565b612721565b90508281526020810184848401111561287857612877612804565b5b61288384828561283a565b509392505050565b600082601f8301126128a05761289f6126bc565b5b81356128b0848260208601612849565b91505092915050565b600080600080600060a086880312156128d5576128d4612411565b5b60006128e388828901612464565b95505060206128f488828901612464565b945050604086013567ffffffffffffffff81111561291557612914612416565b5b612921888289016127d6565b935050606086013567ffffffffffffffff81111561294257612941612416565b5b61294e888289016127d6565b925050608086013567ffffffffffffffff81111561296f5761296e612416565b5b61297b8882890161288b565b9150509295509295909350565b600067ffffffffffffffff8211156129a3576129a26126c1565b5b602082029050602081019050919050565b60006129c76129c284612988565b612721565b905080838252602082019050602084028301858111156129ea576129e9612768565b5b835b81811015612a1357806129ff8882612464565b8452602084019350506020810190506129ec565b5050509392505050565b600082601f830112612a3257612a316126bc565b5b8135612a428482602086016129b4565b91505092915050565b60008060408385031215612a6257612a61612411565b5b600083013567ffffffffffffffff811115612a8057612a7f612416565b5b612a8c85828601612a1d565b925050602083013567ffffffffffffffff811115612aad57612aac612416565b5b612ab9858286016127d6565b9150509250929050565b600081519050919050565b600082825260208201905092915050565b6000819050602082019050919050565b612af881612479565b82525050565b6000612b0a8383612aef565b60208301905092915050565b6000602082019050919050565b6000612b2e82612ac3565b612b388185612ace565b9350612b4383612adf565b8060005b83811015612b74578151612b5b8882612afe565b9750612b6683612b16565b925050600181019050612b47565b5085935050505092915050565b60006020820190508181036000830152612b9b8184612b23565b905092915050565b600081519050919050565b600082825260208201905092915050565b6000819050602082019050919050565b612bd88161243b565b82525050565b600082825260208201905092915050565b6000612bfa826125d4565b612c048185612bde565b9350612c148185602086016125f0565b612c1d81612623565b840191505092915050565b6000608083016000830151612c406000860182612bcf565b506020830151612c536020860182612bcf565b5060408301518482036040860152612c6b8282612bef565b9150506060830151612c806060860182612aef565b508091505092915050565b6000612c978383612c28565b905092915050565b6000602082019050919050565b6000612cb782612ba3565b612cc18185612bae565b935083602082028501612cd385612bbf565b8060005b85811015612d0f5784840389528151612cf08582612c8b565b9450612cfb83612c9f565b925060208a01995050600181019050612cd7565b50829750879550505050505092915050565b60006020820190508181036000830152612d3b8184612cac565b905092915050565b612d4c8161243b565b82525050565b6000602082019050612d676000830184612d43565b92915050565b612d768161259e565b8114612d8157600080fd5b50565b600081359050612d9381612d6d565b92915050565b60008060408385031215612db057612daf612411565b5b6000612dbe85828601612464565b9250506020612dcf85828601612d84565b9150509250929050565b6000612de48261241b565b9050919050565b612df481612dd9565b8114612dff57600080fd5b50565b600081359050612e1181612deb565b92915050565b600067ffffffffffffffff821115612e3257612e316126c1565b5b612e3b82612623565b9050602081019050919050565b6000612e5b612e5684612e17565b612721565b905082815260208101848484011115612e7757612e76612804565b5b612e8284828561283a565b509392505050565b600082601f830112612e9f57612e9e6126bc565b5b8135612eaf848260208601612e48565b91505092915050565b600080600060608486031215612ed157612ed0612411565b5b6000612edf86828701612e02565b9350506020612ef08682870161249a565b925050604084013567ffffffffffffffff811115612f1157612f10612416565b5b612f1d86828701612e8a565b9150509250925092565b60008060408385031215612f3e57612f3d612411565b5b6000612f4c85828601612464565b9250506020612f5d85828601612464565b9150509250929050565b600080600080600060a08688031215612f8357612f82612411565b5b6000612f9188828901612464565b9550506020612fa288828901612464565b9450506040612fb38882890161249a565b9350506060612fc48882890161249a565b925050608086013567ffffffffffffffff811115612fe557612fe4612416565b5b612ff18882890161288b565b9150509295509295909350565b60006020828403121561301457613013612411565b5b600061302284828501612464565b91505092915050565b60008060006060848603121561304457613043612411565b5b600061305286828701612464565b93505060206130638682870161249a565b92505060406130748682870161249a565b9150509250925092565b7f455243313135353a2062616c616e636520717565727920666f7220746865207a60008201527f65726f2061646472657373000000000000000000000000000000000000000000602082015250565b60006130da602b836125df565b91506130e58261307e565b604082019050919050565b60006020820190508181036000830152613109816130cd565b9050919050565b7f4e487b7100000000000000000000000000000000000000000000000000000000600052602260045260246000fd5b6000600282049050600182168061315757607f821691505b60208210810361316a57613169613110565b5b50919050565b600081905092915050565b60008190508160005260206000209050919050565b6000815461319d8161313f565b6131a78186613170565b945060018216600081146131c257600181146131d357613206565b60ff19831686528186019350613206565b6131dc8561317b565b60005b838110156131fe578154818901526001820191506020810190506131df565b838801955050505b50505092915050565b600061321a826125d4565b6132248185613170565b93506132348185602086016125f0565b80840191505092915050565b600061324c8286613190565b9150613258828561320f565b91506132648284613190565b9150819050949350505050565b7f455243313135353a207472616e736665722063616c6c6572206973206e6f742060008201527f6f776e6572206e6f7220617070726f7665640000000000000000000000000000602082015250565b60006132cd6032836125df565b91506132d882613271565b604082019050919050565b600060208201905081810360008301526132fc816132c0565b9050919050565b7f455243313135353a206163636f756e747320616e6420696473206c656e67746860008201527f206d69736d617463680000000000000000000000000000000000000000000000602082015250565b600061335f6029836125df565b915061336a82613303565b604082019050919050565b6000602082019050818103600083015261338e81613352565b9050919050565b7f4e487b7100000000000000000000000000000000000000000000000000000000600052603260045260246000fd5b7f4e487b7100000000000000000000000000000000000000000000000000000000600052601160045260246000fd5b60006133fe82612479565b91507fffffffffffffffffffffffffffffffffffffffffffffffffffffffffffffffff82036134305761342f6133c4565b5b600182019050919050565b7f4f776e61626c653a2063616c6c6572206973206e6f7420746865206f776e6572600082015250565b60006134716020836125df565b915061347c8261343b565b602082019050919050565b600060208201905081810360008301526134a081613464565b9050919050565b6000819050919050565b60006134cc6134c76134c28461241b565b6134a7565b61241b565b9050919050565b60006134de826134b1565b9050919050565b60006134f0826134d3565b9050919050565b613500816134e5565b82525050565b600060808201905061351b6000830187612d43565b61352860208301866134f7565b818103604083015261353a8185612634565b905061354960608301846124ef565b95945050505050565b7f455243313135353a2063616c6c6572206973206e6f74206f776e6572206e6f7260008201527f20617070726f7665640000000000000000000000000000000000000000000000602082015250565b60006135ae6029836125df565b91506135b982613552565b604082019050919050565b600060208201905081810360008301526135dd816135a1565b9050919050565b7f4f776e61626c653a206e6577206f776e657220697320746865207a65726f206160008201527f6464726573730000000000000000000000000000000000000000000000000000602082015250565b60006136406026836125df565b915061364b826135e4565b604082019050919050565b6000602082019050818103600083015261366f81613633565b9050919050565b600061368182612479565b915060008203613694576136936133c4565b5b600182039050919050565b7f4e487b7100000000000000000000000000000000000000000000000000000000600052601260045260246000fd5b60006136d982612479565b91506136e483612479565b9250826136f4576136f361369f565b5b828204905092915050565b600061370a82612479565b915061371583612479565b925082821015613728576137276133c4565b5b828203905092915050565b600061373e82612479565b915061374983612479565b9250826137595761375861369f565b5b828206905092915050565b600061376f82612479565b915061377a83612479565b9250827fffffffffffffffffffffffffffffffffffffffffffffffffffffffffffffffff038211156137af576137ae6133c4565b5b828201905092915050565b7f455243313135353a2069647320616e6420616d6f756e7473206c656e6774682060008201527f6d69736d61746368000000000000000000000000000000000000000000000000602082015250565b60006138166028836125df565b9150613821826137ba565b604082019050919050565b6000602082019050818103600083015261384581613809565b9050919050565b7f455243313135353a207472616e7366657220746f20746865207a65726f20616460008201527f6472657373000000000000000000000000000000000000000000000000000000602082015250565b60006138a86025836125df565b91506138b38261384c565b604082019050919050565b600060208201905081810360008301526138d78161389b565b9050919050565b7f455243313135353a20696e73756666696369656e742062616c616e636520666f60008201527f72207472616e7366657200000000000000000000000000000000000000000000602082015250565b600061393a602a836125df565b9150613945826138de565b604082019050919050565b600060208201905081810360008301526139698161392d565b9050919050565b6000604082019050818103600083015261398a8185612b23565b9050818103602083015261399e8184612b23565b90509392505050565b7f455243313135353a2073657474696e6720617070726f76616c2073746174757360008201527f20666f722073656c660000000000000000000000000000000000000000000000602082015250565b6000613a036029836125df565b9150613a0e826139a7565b604082019050919050565b60006020820190508181036000830152613a32816139f6565b9050919050565b7f455243313135353a206d696e7420746f20746865207a65726f2061646472657360008201527f7300000000000000000000000000000000000000000000000000000000000000602082015250565b6000613a956021836125df565b9150613aa082613a39565b604082019050919050565b60006020820190508181036000830152613ac481613a88565b9050919050565b6000604082019050613ae060008301856124ef565b613aed60208301846124ef565b9392505050565b7f455243313135353a206275726e2066726f6d20746865207a65726f206164647260008201527f6573730000000000000000000000000000000000000000000000000000000000602082015250565b6000613b506023836125df565b9150613b5b82613af4565b604082019050919050565b60006020820190508181036000830152613b7f81613b43565b9050919050565b7f455243313135353a206275726e20616d6f756e7420657863656564732062616c60008201527f616e636500000000000000000000000000000000000000000000000000000000602082015250565b6000613be26024836125df565b9150613bed82613b86565b604082019050919050565b60006020820190508181036000830152613c1181613bd5565b9050919050565b7f455243313135353a206275726e20616d6f756e74206578636565647320746f7460008201527f616c537570706c79000000000000000000000000000000000000000000000000602082015250565b6000613c746028836125df565b9150613c7f82613c18565b604082019050919050565b60006020820190508181036000830152613ca381613c67565b9050919050565b600081519050919050565b600082825260208201905092915050565b6000613cd182613caa565b613cdb8185613cb5565b9350613ceb8185602086016125f0565b613cf481612623565b840191505092915050565b600060a082019050613d146000830188612d43565b613d216020830187612d43565b8181036040830152613d338186612b23565b90508181036060830152613d478185612b23565b90508181036080830152613d5b8184613cc6565b90509695505050505050565b600081519050613d7681612545565b92915050565b600060208284031215613d9257613d91612411565b5b6000613da084828501613d67565b91505092915050565b60008160e01c9050919050565b600060033d1115613dd55760046000803e613dd2600051613da9565b90505b90565b600060443d10613e6557613dea612407565b60043d036004823e80513d602482011167ffffffffffffffff82111715613e12575050613e65565b808201805167ffffffffffffffff811115613e305750505050613e65565b80602083010160043d038501811115613e4d575050505050613e65565b613e5c826020018501866126f0565b82955050505050505b90565b7f455243313135353a207472616e7366657220746f206e6f6e204552433131353560008201527f526563656976657220696d706c656d656e746572000000000000000000000000602082015250565b6000613ec46034836125df565b9150613ecf82613e68565b604082019050919050565b60006020820190508181036000830152613ef381613eb7565b9050919050565b7f455243313135353a204552433131353552656365697665722072656a6563746560008201527f6420746f6b656e73000000000000000000000000000000000000000000000000602082015250565b6000613f566028836125df565b9150613f6182613efa565b604082019050919050565b60006020820190508181036000830152613f8581613f49565b9050919050565b600060a082019050613fa16000830188612d43565b613fae6020830187612d43565b613fbb60408301866124ef565b613fc860608301856124ef565b8181036080830152613fda8184613cc6565b9050969550505050505056fea2646970667358221220c331c8f42c4555a16e6a0d11221cb32c6c4001c2625a2e6ab6574148f577567364736f6c634300080e0033",
  "immutableReferences": {},
  "source": "// SPDX-License-Identifier: MIT\n\npragma solidity ^0.8.14;\n\n// Import ERC1155 token contract from Openzeppelin\n\nimport \"../node_modules/@openzeppelin/contracts/token/ERC1155/ERC1155.sol\";\nimport \"../node_modules/@openzeppelin/contracts/access/Ownable.sol\";\nimport \"../node_modules/@openzeppelin/contracts/utils/Strings.sol\";\nimport \"../node_modules/@openzeppelin/contracts/token/ERC1155/extensions/ERC1155Supply.sol\";\n\ncontract Kudos is ERC1155Supply, Ownable {\n    string private _baseUri;\n    string private _baseExtension = \".json\";\n    string public name = \"More Than Kudos\";\n    string public symbol = \"MTK\";\n    uint256 public supply = 0;\n    mapping(uint256 => string) private _uris;\n\n    event SendMessage(address from, address receiver, string message, uint256 timestamp);\n  \n    struct KudosStruct {\n        address sender;\n        address receiver;\n        string message;\n        uint256 timestamp;\n    }\n\n    KudosStruct[] kudos;\n\n    constructor(string memory _initBaseURI) ERC1155(_initBaseURI) {\n        _baseUri = _initBaseURI;\n    }\n\n    function uri(uint256 tokenId) override public view returns (string memory) {\n        return(string(abi.encodePacked(_baseUri, Strings.toString(tokenId),_baseExtension))\n        );\n    }\n\n    function sendKudo(address payable receiver, uint256 tokenId, string memory message ) public {\n        kudos.push(KudosStruct(msg.sender, receiver, message, block.timestamp));\n        require(msg.sender != receiver);\n        _mint(receiver, tokenId, 1, \"\");\n        supply++;\n\n        emit SendMessage(msg.sender, receiver, message, block.timestamp);\n    }\n\n    function getAllkudos() public view returns (KudosStruct[] memory) {\n        return kudos;\n    }\n\n    function burn(address account, uint256 id, uint256 amount) public {\n        require(msg.sender == account);\n        _burn(account, id, amount);\n        supply--;\n    } \n}",
  "sourcePath": "/Users/thomas.viana/Developer/kudos-web3/smart-contract/contracts/Kudos.sol",
  "compiler": {
    "name": "solc",
    "version": "0.8.14+commit.80d49f37.Emscripten.clang"
  },
  "schemaVersion": "3.4.7",
  "updatedAt": "2022-06-17T17:21:47.763Z",
  "devdoc": {
    "kind": "dev",
    "methods": {
      "balanceOf(address,uint256)": {
        "details": "See {IERC1155-balanceOf}. Requirements: - `account` cannot be the zero address."
      },
      "balanceOfBatch(address[],uint256[])": {
        "details": "See {IERC1155-balanceOfBatch}. Requirements: - `accounts` and `ids` must have the same length."
      },
      "exists(uint256)": {
        "details": "Indicates whether any token exist with a given id, or not."
      },
      "isApprovedForAll(address,address)": {
        "details": "See {IERC1155-isApprovedForAll}."
      },
      "owner()": {
        "details": "Returns the address of the current owner."
      },
      "renounceOwnership()": {
        "details": "Leaves the contract without owner. It will not be possible to call `onlyOwner` functions anymore. Can only be called by the current owner. NOTE: Renouncing ownership will leave the contract without an owner, thereby removing any functionality that is only available to the owner."
      },
      "safeBatchTransferFrom(address,address,uint256[],uint256[],bytes)": {
        "details": "See {IERC1155-safeBatchTransferFrom}."
      },
      "safeTransferFrom(address,address,uint256,uint256,bytes)": {
        "details": "See {IERC1155-safeTransferFrom}."
      },
      "setApprovalForAll(address,bool)": {
        "details": "See {IERC1155-setApprovalForAll}."
      },
      "supportsInterface(bytes4)": {
        "details": "See {IERC165-supportsInterface}."
      },
      "totalSupply(uint256)": {
        "details": "Total amount of tokens in with a given id."
      },
      "transferOwnership(address)": {
        "details": "Transfers ownership of the contract to a new account (`newOwner`). Can only be called by the current owner."
      }
    },
    "version": 1
  },
  "userdoc": {
    "kind": "user",
    "methods": {},
    "version": 1
  }
}